{"abi":[{"type":"function","name":"CUSTOMER_GOLD","inputs":[],"outputs":[{"name":"","type":"uint256","internalType":"uint256"}],"stateMutability":"view"},{"type":"function","name":"CUSTOMER_PREMIUM","inputs":[],"outputs":[{"name":"","type":"uint256","internalType":"uint256"}],"stateMutability":"view"},{"type":"function","name":"CUSTOMER_TITANIUM","inputs":[],"outputs":[{"name":"","type":"uint256","internalType":"uint256"}],"stateMutability":"view"},{"type":"function","name":"UPGRADE_INTERFACE_VERSION","inputs":[],"outputs":[{"name":"","type":"string","internalType":"string"}],"stateMutability":"view"},{"type":"function","name":"balanceOf","inputs":[{"name":"account","type":"address","internalType":"address"},{"name":"id","type":"uint256","internalType":"uint256"}],"outputs":[{"name":"","type":"uint256","internalType":"uint256"}],"stateMutability":"view"},{"type":"function","name":"balanceOfBatch","inputs":[{"name":"accounts","type":"address[]","internalType":"address[]"},{"name":"ids","type":"uint256[]","internalType":"uint256[]"}],"outputs":[{"name":"","type":"uint256[]","internalType":"uint256[]"}],"stateMutability":"view"},{"type":"function","name":"burnToken","inputs":[{"name":"account","type":"address","internalType":"address"},{"name":"id","type":"uint256","internalType":"uint256"},{"name":"amount","type":"uint256","internalType":"uint256"}],"outputs":[],"stateMutability":"nonpayable"},{"type":"function","name":"isApprovedForAll","inputs":[{"name":"account","type":"address","internalType":"address"},{"name":"operator","type":"address","internalType":"address"}],"outputs":[{"name":"","type":"bool","internalType":"bool"}],"stateMutability":"view"},{"type":"function","name":"mint","inputs":[{"name":"account","type":"address","internalType":"address"},{"name":"nftId","type":"uint256","internalType":"uint256"},{"name":"amount","type":"uint256","internalType":"uint256"}],"outputs":[],"stateMutability":"nonpayable"},{"type":"function","name":"owner","inputs":[],"outputs":[{"name":"","type":"address","internalType":"address"}],"stateMutability":"view"},{"type":"function","name":"proxiableUUID","inputs":[],"outputs":[{"name":"","type":"bytes32","internalType":"bytes32"}],"stateMutability":"view"},{"type":"function","name":"renounceOwnership","inputs":[],"outputs":[],"stateMutability":"nonpayable"},{"type":"function","name":"safeBatchTransferFrom","inputs":[{"name":"from","type":"address","internalType":"address"},{"name":"to","type":"address","internalType":"address"},{"name":"ids","type":"uint256[]","internalType":"uint256[]"},{"name":"values","type":"uint256[]","internalType":"uint256[]"},{"name":"data","type":"bytes","internalType":"bytes"}],"outputs":[],"stateMutability":"nonpayable"},{"type":"function","name":"safeTransferFrom","inputs":[{"name":"from","type":"address","internalType":"address"},{"name":"to","type":"address","internalType":"address"},{"name":"id","type":"uint256","internalType":"uint256"},{"name":"value","type":"uint256","internalType":"uint256"},{"name":"data","type":"bytes","internalType":"bytes"}],"outputs":[],"stateMutability":"nonpayable"},{"type":"function","name":"setApprovalForAll","inputs":[{"name":"operator","type":"address","internalType":"address"},{"name":"approved","type":"bool","internalType":"bool"}],"outputs":[],"stateMutability":"nonpayable"},{"type":"function","name":"supportsInterface","inputs":[{"name":"interfaceId","type":"bytes4","internalType":"bytes4"}],"outputs":[{"name":"","type":"bool","internalType":"bool"}],"stateMutability":"view"},{"type":"function","name":"transferOwnership","inputs":[{"name":"newOwner","type":"address","internalType":"address"}],"outputs":[],"stateMutability":"nonpayable"},{"type":"function","name":"upgradeToAndCall","inputs":[{"name":"newImplementation","type":"address","internalType":"address"},{"name":"data","type":"bytes","internalType":"bytes"}],"outputs":[],"stateMutability":"payable"},{"type":"function","name":"uri","inputs":[{"name":"","type":"uint256","internalType":"uint256"}],"outputs":[{"name":"","type":"string","internalType":"string"}],"stateMutability":"view"},{"type":"event","name":"ApprovalForAll","inputs":[{"name":"account","type":"address","indexed":true,"internalType":"address"},{"name":"operator","type":"address","indexed":true,"internalType":"address"},{"name":"approved","type":"bool","indexed":false,"internalType":"bool"}],"anonymous":false},{"type":"event","name":"Initialized","inputs":[{"name":"version","type":"uint64","indexed":false,"internalType":"uint64"}],"anonymous":false},{"type":"event","name":"OwnershipTransferred","inputs":[{"name":"previousOwner","type":"address","indexed":true,"internalType":"address"},{"name":"newOwner","type":"address","indexed":true,"internalType":"address"}],"anonymous":false},{"type":"event","name":"TransferBatch","inputs":[{"name":"operator","type":"address","indexed":true,"internalType":"address"},{"name":"from","type":"address","indexed":true,"internalType":"address"},{"name":"to","type":"address","indexed":true,"internalType":"address"},{"name":"ids","type":"uint256[]","indexed":false,"internalType":"uint256[]"},{"name":"values","type":"uint256[]","indexed":false,"internalType":"uint256[]"}],"anonymous":false},{"type":"event","name":"TransferSingle","inputs":[{"name":"operator","type":"address","indexed":true,"internalType":"address"},{"name":"from","type":"address","indexed":true,"internalType":"address"},{"name":"to","type":"address","indexed":true,"internalType":"address"},{"name":"id","type":"uint256","indexed":false,"internalType":"uint256"},{"name":"value","type":"uint256","indexed":false,"internalType":"uint256"}],"anonymous":false},{"type":"event","name":"URI","inputs":[{"name":"value","type":"string","indexed":false,"internalType":"string"},{"name":"id","type":"uint256","indexed":true,"internalType":"uint256"}],"anonymous":false},{"type":"event","name":"Upgraded","inputs":[{"name":"implementation","type":"address","indexed":true,"internalType":"address"}],"anonymous":false},{"type":"error","name":"AddressEmptyCode","inputs":[{"name":"target","type":"address","internalType":"address"}]},{"type":"error","name":"ERC1155InsufficientBalance","inputs":[{"name":"sender","type":"address","internalType":"address"},{"name":"balance","type":"uint256","internalType":"uint256"},{"name":"needed","type":"uint256","internalType":"uint256"},{"name":"tokenId","type":"uint256","internalType":"uint256"}]},{"type":"error","name":"ERC1155InvalidApprover","inputs":[{"name":"approver","type":"address","internalType":"address"}]},{"type":"error","name":"ERC1155InvalidArrayLength","inputs":[{"name":"idsLength","type":"uint256","internalType":"uint256"},{"name":"valuesLength","type":"uint256","internalType":"uint256"}]},{"type":"error","name":"ERC1155InvalidOperator","inputs":[{"name":"operator","type":"address","internalType":"address"}]},{"type":"error","name":"ERC1155InvalidReceiver","inputs":[{"name":"receiver","type":"address","internalType":"address"}]},{"type":"error","name":"ERC1155InvalidSender","inputs":[{"name":"sender","type":"address","internalType":"address"}]},{"type":"error","name":"ERC1155MissingApprovalForAll","inputs":[{"name":"operator","type":"address","internalType":"address"},{"name":"owner","type":"address","internalType":"address"}]},{"type":"error","name":"ERC1967InvalidImplementation","inputs":[{"name":"implementation","type":"address","internalType":"address"}]},{"type":"error","name":"ERC1967NonPayable","inputs":[]},{"type":"error","name":"FailedInnerCall","inputs":[]},{"type":"error","name":"InvalidInitialization","inputs":[]},{"type":"error","name":"NotInitializing","inputs":[]},{"type":"error","name":"OwnableInvalidOwner","inputs":[{"name":"owner","type":"address","internalType":"address"}]},{"type":"error","name":"OwnableUnauthorizedAccount","inputs":[{"name":"account","type":"address","internalType":"address"}]},{"type":"error","name":"UUPSUnauthorizedCallContext","inputs":[]},{"type":"error","name":"UUPSUnsupportedProxiableUUID","inputs":[{"name":"slot","type":"bytes32","internalType":"bytes32"}]}],"bytecode":{"object":"0x60a060405230608052348015601357600080fd5b50608051611b1761003d6000396000818161099d015281816109c60152610b070152611b176000f3fe6080604052600436106101135760003560e01c80638da5cb5b116100a0578063de29d16b11610064578063de29d16b14610316578063e985e9c51461032b578063ed8c59381461034b578063f242432a1461036b578063f2fde38b1461038b57600080fd5b80638da5cb5b14610254578063a22cb4651461029b578063a49fa23c146102bb578063ad3cb1cc146102d0578063bb7b1d8f1461030157600080fd5b80632eb2c2d6116100e75780632eb2c2d6146101ca5780634e1273f4146101ea5780634f1ef2861461021757806352d1902d1461022a578063715018a61461023f57600080fd5b8062fdd58e1461011857806301ffc9a71461014b5780630e89341c1461017b578063156e29f6146101a8575b600080fd5b34801561012457600080fd5b506101386101333660046113cd565b6103ab565b6040519081526020015b60405180910390f35b34801561015757600080fd5b5061016b61016636600461140d565b6103e2565b6040519015158152602001610142565b34801561018757600080fd5b5061019b61019636600461142a565b610432565b6040516101429190611493565b3480156101b457600080fd5b506101c86101c33660046114a6565b6104f7565b005b3480156101d657600080fd5b506101c86101e5366004611621565b610583565b3480156101f657600080fd5b5061020a6102053660046116d7565b6105ea565b60405161014291906117dc565b6101c86102253660046117ef565b6106b7565b34801561023657600080fd5b506101386106d6565b34801561024b57600080fd5b506101c86106f3565b34801561026057600080fd5b507f9016d09d72d40fdae2fd8ceac6b6234c7706214fd39c1cd1e609a0528c199300546040516001600160a01b039091168152602001610142565b3480156102a757600080fd5b506101c86102b6366004611833565b610707565b3480156102c757600080fd5b50610138600281565b3480156102dc57600080fd5b5061019b604051806040016040528060058152602001640352e302e360dc1b81525081565b34801561030d57600080fd5b50610138600181565b34801561032257600080fd5b50610138600381565b34801561033757600080fd5b5061016b61034636600461186f565b610712565b34801561035757600080fd5b506101c86103663660046114a6565b61075f565b34801561037757600080fd5b506101c86103863660046118a2565b6107d6565b34801561039757600080fd5b506101c86103a63660046118fb565b610835565b6000818152600080516020611ac2833981519152602090815260408083206001600160a01b03861684529091529020545b92915050565b60006001600160e01b03198216636cdb3d1360e11b148061041357506001600160e01b031982166303a24d0760e21b145b806103dc57506301ffc9a760e01b6001600160e01b03198316146103dc565b7f88be536d5240c274a3b1d3a1be54482fd9caa294f08c62a7cde569f49a3c45028054606091600080516020611ac28339815191529161047190611916565b80601f016020809104026020016040519081016040528092919081815260200182805461049d90611916565b80156104ea5780601f106104bf576101008083540402835291602001916104ea565b820191906000526020600020905b8154815290600101906020018083116104cd57829003601f168201915b5050505050915050919050565b6104ff610873565b600182148061050e5750600282145b806105195750600382145b6105635760405162461bcd60e51b8152602060048201526016602482015275125b9d985b1a590818985919d9481b999d1259081a5960521b60448201526064015b60405180910390fd5b61057e838383604051806020016040528060008152506108ce565b505050565b336001600160a01b03861681148015906105a457506105a28682610712565b155b156105d55760405163711bec9160e11b81526001600160a01b0380831660048301528716602482015260440161055a565b6105e2868686868661092b565b505050505050565b6060815183511461061b5781518351604051635b05999160e01b81526004810192909252602482015260440161055a565b6000835167ffffffffffffffff811115610637576106376114d9565b604051908082528060200260200182016040528015610660578160200160208202803683370190505b50905060005b84518110156106af5760208082028601015161068a906020808402870101516103ab565b82828151811061069c5761069c611950565b6020908102919091010152600101610666565b509392505050565b6106bf610992565b6106c882610a37565b6106d28282610a3f565b5050565b60006106e0610afc565b50600080516020611aa283398151915290565b6106fb610873565b6107056000610b45565b565b6106d2338383610bb6565b6001600160a01b0391821660009081527f88be536d5240c274a3b1d3a1be54482fd9caa294f08c62a7cde569f49a3c45016020908152604080832093909416825291909152205460ff1690565b610767610873565b600061077384846103ab565b9050818110156107c55760405162461bcd60e51b815260206004820152601c60248201527f496e73756666696369656e742062616c616e636520746f206275726e00000000604482015260640161055a565b6107d0848484610c5e565b50505050565b336001600160a01b03861681148015906107f757506107f58682610712565b155b156108285760405163711bec9160e11b81526001600160a01b0380831660048301528716602482015260440161055a565b6105e28686868686610cc6565b61083d610873565b6001600160a01b03811661086757604051631e4fbdf760e01b81526000600482015260240161055a565b61087081610b45565b50565b336108a57f9016d09d72d40fdae2fd8ceac6b6234c7706214fd39c1cd1e609a0528c199300546001600160a01b031690565b6001600160a01b0316146107055760405163118cdaa760e01b815233600482015260240161055a565b6001600160a01b0384166108f857604051632bfa23e760e11b81526000600482015260240161055a565b604080516001808252602082018690528183019081526060820185905260808201909252906105e2600087848487610d54565b6001600160a01b03841661095557604051632bfa23e760e11b81526000600482015260240161055a565b6001600160a01b03851661097e57604051626a0d4560e21b81526000600482015260240161055a565b61098b8585858585610d54565b5050505050565b306001600160a01b037f0000000000000000000000000000000000000000000000000000000000000000161480610a1957507f00000000000000000000000000000000000000000000000000000000000000006001600160a01b0316610a0d600080516020611aa2833981519152546001600160a01b031690565b6001600160a01b031614155b156107055760405163703e46dd60e11b815260040160405180910390fd5b610870610873565b816001600160a01b03166352d1902d6040518163ffffffff1660e01b8152600401602060405180830381865afa925050508015610a99575060408051601f3d908101601f19168201909252610a9691810190611966565b60015b610ac157604051634c9c8ce360e01b81526001600160a01b038316600482015260240161055a565b600080516020611aa28339815191528114610af257604051632a87526960e21b81526004810182905260240161055a565b61057e8383610da7565b306001600160a01b037f000000000000000000000000000000000000000000000000000000000000000016146107055760405163703e46dd60e11b815260040160405180910390fd5b7f9016d09d72d40fdae2fd8ceac6b6234c7706214fd39c1cd1e609a0528c19930080546001600160a01b031981166001600160a01b03848116918217845560405192169182907f8be0079c531659141344cd1fd0a4f28419497f9722a3daafe3b4186f6b6457e090600090a3505050565b600080516020611ac28339815191526001600160a01b038316610bee5760405162ced3e160e81b81526000600482015260240161055a565b6001600160a01b038481166000818152600184016020908152604080832094881680845294825291829020805460ff191687151590811790915591519182527f17307eab39ab6107e8899845ad3d59bd9653f200f220920489ca2b5937696c31910160405180910390a350505050565b6001600160a01b038316610c8757604051626a0d4560e21b81526000600482015260240161055a565b604080516001808252602082018590528183019081526060820184905260a0820190925260006080820181815291929161098b91879185908590610d54565b6001600160a01b038416610cf057604051632bfa23e760e11b81526000600482015260240161055a565b6001600160a01b038516610d1957604051626a0d4560e21b81526000600482015260240161055a565b60408051600180825260208201869052818301908152606082018590526080820190925290610d4b8787848487610d54565b50505050505050565b610d6085858585610dfd565b6001600160a01b0384161561098b5782513390600103610d995760208481015190840151610d92838989858589611022565b50506105e2565b6105e2818787878787611146565b610db08261122f565b6040516001600160a01b038316907fbc7cd75a20ee27fd9adebab32041f755214dbc6bffa90cc0225b39da2e5c2d3b90600090a2805115610df55761057e8282611294565b6106d261130a565b80518251600080516020611ac28339815191529114610e3c5782518251604051635b05999160e01b81526004810192909252602482015260440161055a565b3360005b8451811015610f42576020818102868101820151908601909101516001600160a01b03891615610ef3576000828152602086815260408083206001600160a01b038d16845290915290205481811015610ecc576040516303dee4c560e01b81526001600160a01b038b16600482015260248101829052604481018390526064810184905260840161055a565b6000838152602087815260408083206001600160a01b038e16845290915290209082900390555b6001600160a01b03881615610f38576000828152602086815260408083206001600160a01b038c16845290915281208054839290610f3290849061197f565b90915550505b5050600101610e40565b508351600103610fc35760208401516000906020850151909150866001600160a01b0316886001600160a01b0316846001600160a01b03167fc3d58168c5ae7397731d063d5bbf3d657854427343f4c083240f7aacaa2d0f628585604051610fb4929190918252602082015260400190565b60405180910390a450506105e2565b846001600160a01b0316866001600160a01b0316826001600160a01b03167f4a39dc06d4c0dbc64b70af90fd698a233a518aa5d07e595d983b8c0526c8f7fb87876040516110129291906119a0565b60405180910390a4505050505050565b6001600160a01b0384163b156105e25760405163f23a6e6160e01b81526001600160a01b0385169063f23a6e619061106690899089908890889088906004016119c5565b6020604051808303816000875af19250505080156110a1575060408051601f3d908101601f1916820190925261109e91810190611a0a565b60015b61110a573d8080156110cf576040519150601f19603f3d011682016040523d82523d6000602084013e6110d4565b606091505b50805160000361110257604051632bfa23e760e11b81526001600160a01b038616600482015260240161055a565b805181602001fd5b6001600160e01b0319811663f23a6e6160e01b14610d4b57604051632bfa23e760e11b81526001600160a01b038616600482015260240161055a565b6001600160a01b0384163b156105e25760405163bc197c8160e01b81526001600160a01b0385169063bc197c819061118a9089908990889088908890600401611a27565b6020604051808303816000875af19250505080156111c5575060408051601f3d908101601f191682019092526111c291810190611a0a565b60015b6111f3573d8080156110cf576040519150601f19603f3d011682016040523d82523d6000602084013e6110d4565b6001600160e01b0319811663bc197c8160e01b14610d4b57604051632bfa23e760e11b81526001600160a01b038616600482015260240161055a565b806001600160a01b03163b60000361126557604051634c9c8ce360e01b81526001600160a01b038216600482015260240161055a565b600080516020611aa283398151915280546001600160a01b0319166001600160a01b0392909216919091179055565b6060600080846001600160a01b0316846040516112b19190611a85565b600060405180830381855af49150503d80600081146112ec576040519150601f19603f3d011682016040523d82523d6000602084013e6112f1565b606091505b5091509150611301858383611329565b95945050505050565b34156107055760405163b398979f60e01b815260040160405180910390fd5b60608261133e5761133982611388565b611381565b815115801561135557506001600160a01b0384163b155b1561137e57604051639996b31560e01b81526001600160a01b038516600482015260240161055a565b50805b9392505050565b8051156113985780518082602001fd5b604051630a12f52160e11b815260040160405180910390fd5b80356001600160a01b03811681146113c857600080fd5b919050565b600080604083850312156113e057600080fd5b6113e9836113b1565b946020939093013593505050565b6001600160e01b03198116811461087057600080fd5b60006020828403121561141f57600080fd5b8135611381816113f7565b60006020828403121561143c57600080fd5b5035919050565b60005b8381101561145e578181015183820152602001611446565b50506000910152565b6000815180845261147f816020860160208601611443565b601f01601f19169290920160200192915050565b6020815260006113816020830184611467565b6000806000606084860312156114bb57600080fd5b6114c4846113b1565b95602085013595506040909401359392505050565b634e487b7160e01b600052604160045260246000fd5b604051601f8201601f1916810167ffffffffffffffff81118282101715611518576115186114d9565b604052919050565b600067ffffffffffffffff82111561153a5761153a6114d9565b5060051b60200190565b600082601f83011261155557600080fd5b813561156861156382611520565b6114ef565b8082825260208201915060208360051b86010192508583111561158a57600080fd5b602085015b838110156115a757803583526020928301920161158f565b5095945050505050565b600082601f8301126115c257600080fd5b813567ffffffffffffffff8111156115dc576115dc6114d9565b6115ef601f8201601f19166020016114ef565b81815284602083860101111561160457600080fd5b816020850160208301376000918101602001919091529392505050565b600080600080600060a0868803121561163957600080fd5b611642866113b1565b9450611650602087016113b1565b9350604086013567ffffffffffffffff81111561166c57600080fd5b61167888828901611544565b935050606086013567ffffffffffffffff81111561169557600080fd5b6116a188828901611544565b925050608086013567ffffffffffffffff8111156116be57600080fd5b6116ca888289016115b1565b9150509295509295909350565b600080604083850312156116ea57600080fd5b823567ffffffffffffffff81111561170157600080fd5b8301601f8101851361171257600080fd5b803561172061156382611520565b8082825260208201915060208360051b85010192508783111561174257600080fd5b6020840193505b8284101561176b5761175a846113b1565b825260209384019390910190611749565b9450505050602083013567ffffffffffffffff81111561178a57600080fd5b61179685828601611544565b9150509250929050565b600081518084526020840193506020830160005b828110156117d25781518652602095860195909101906001016117b4565b5093949350505050565b60208152600061138160208301846117a0565b6000806040838503121561180257600080fd5b61180b836113b1565b9150602083013567ffffffffffffffff81111561182757600080fd5b611796858286016115b1565b6000806040838503121561184657600080fd5b61184f836113b1565b91506020830135801515811461186457600080fd5b809150509250929050565b6000806040838503121561188257600080fd5b61188b836113b1565b9150611899602084016113b1565b90509250929050565b600080600080600060a086880312156118ba57600080fd5b6118c3866113b1565b94506118d1602087016113b1565b93506040860135925060608601359150608086013567ffffffffffffffff8111156116be57600080fd5b60006020828403121561190d57600080fd5b611381826113b1565b600181811c9082168061192a57607f821691505b60208210810361194a57634e487b7160e01b600052602260045260246000fd5b50919050565b634e487b7160e01b600052603260045260246000fd5b60006020828403121561197857600080fd5b5051919050565b808201808211156103dc57634e487b7160e01b600052601160045260246000fd5b6040815260006119b360408301856117a0565b828103602084015261130181856117a0565b6001600160a01b03868116825285166020820152604081018490526060810183905260a0608082018190526000906119ff90830184611467565b979650505050505050565b600060208284031215611a1c57600080fd5b8151611381816113f7565b6001600160a01b0386811682528516602082015260a060408201819052600090611a53908301866117a0565b8281036060840152611a6581866117a0565b90508281036080840152611a798185611467565b98975050505050505050565b60008251611a97818460208701611443565b919091019291505056fe360894a13ba1a3210667c828492db98dca3e2076cc3735a920a3ca505d382bbc88be536d5240c274a3b1d3a1be54482fd9caa294f08c62a7cde569f49a3c4500a2646970667358221220cd1a3b8871e430f7157a78abd5081e9ed17c79574828bdca24a5d5c865630d3a64736f6c634300081b0033","linkReferences":{}},"methodIdentifiers":{"CUSTOMER_GOLD()":"a49fa23c","CUSTOMER_PREMIUM()":"bb7b1d8f","CUSTOMER_TITANIUM()":"de29d16b","UPGRADE_INTERFACE_VERSION()":"ad3cb1cc","balanceOf(address,uint256)":"00fdd58e","balanceOfBatch(address[],uint256[])":"4e1273f4","burnToken(address,uint256,uint256)":"ed8c5938","isApprovedForAll(address,address)":"e985e9c5","mint(address,uint256,uint256)":"156e29f6","owner()":"8da5cb5b","proxiableUUID()":"52d1902d","renounceOwnership()":"715018a6","safeBatchTransferFrom(address,address,uint256[],uint256[],bytes)":"2eb2c2d6","safeTransferFrom(address,address,uint256,uint256,bytes)":"f242432a","setApprovalForAll(address,bool)":"a22cb465","supportsInterface(bytes4)":"01ffc9a7","transferOwnership(address)":"f2fde38b","upgradeToAndCall(address,bytes)":"4f1ef286","uri(uint256)":"0e89341c"},"id":8}