{
  "abi": [
    {
      "type": "function",
      "name": "UPGRADE_INTERFACE_VERSION",
      "inputs": [],
      "outputs": [
        {
          "name": "",
          "type": "string",
          "internalType": "string"
        }
      ],
      "stateMutability": "view"
    },
    {
      "type": "function",
      "name": "currentId",
      "inputs": [],
      "outputs": [
        {
          "name": "",
          "type": "uint256",
          "internalType": "uint256"
        }
      ],
      "stateMutability": "view"
    },
    {
      "type": "function",
      "name": "getClientData",
      "inputs": [
        {
          "name": "clientId",
          "type": "uint256",
          "internalType": "uint256"
        }
      ],
      "outputs": [
        {
          "name": "",
          "type": "tuple",
          "internalType": "struct ICustomerManagementStorage.ClientData",
          "components": [
            {
              "name": "clientId",
              "type": "uint256",
              "internalType": "uint256"
            },
            {
              "name": "name",
              "type": "string",
              "internalType": "string"
            },
            {
              "name": "age",
              "type": "uint256",
              "internalType": "uint256"
            },
            {
              "name": "WalletAddress",
              "type": "address",
              "internalType": "address"
            },
            {
              "name": "paymentStatus",
              "type": "uint8",
              "internalType": "enum ICustomerManagementStorage.PaymentStatus"
            },
            {
              "name": "addressLocal",
              "type": "tuple",
              "internalType": "struct ICustomerManagementStorage.AddressLocal",
              "components": [
                {
                  "name": "City",
                  "type": "string",
                  "internalType": "string"
                },
                {
                  "name": "Street",
                  "type": "string",
                  "internalType": "string"
                },
                {
                  "name": "PostalCode",
                  "type": "uint256",
                  "internalType": "uint256"
                },
                {
                  "name": "HouseNumber",
                  "type": "uint256",
                  "internalType": "uint256"
                }
              ]
            }
          ]
        }
      ],
      "stateMutability": "view"
    },
    {
      "type": "function",
      "name": "getClientName",
      "inputs": [
        {
          "name": "clientId",
          "type": "uint256",
          "internalType": "uint256"
        }
      ],
      "outputs": [
        {
          "name": "",
          "type": "string",
          "internalType": "string"
        }
      ],
      "stateMutability": "view"
    },
    {
      "type": "function",
      "name": "getClientWalletAddress",
      "inputs": [
        {
          "name": "clientId",
          "type": "uint256",
          "internalType": "uint256"
        }
      ],
      "outputs": [
        {
          "name": "",
          "type": "address",
          "internalType": "address"
        }
      ],
      "stateMutability": "view"
    },
    {
      "type": "function",
      "name": "getClientsByAddress",
      "inputs": [
        {
          "name": "clientAddress",
          "type": "address",
          "internalType": "address"
        }
      ],
      "outputs": [
        {
          "name": "",
          "type": "tuple",
          "internalType": "struct ICustomerManagementStorage.ClientData",
          "components": [
            {
              "name": "clientId",
              "type": "uint256",
              "internalType": "uint256"
            },
            {
              "name": "name",
              "type": "string",
              "internalType": "string"
            },
            {
              "name": "age",
              "type": "uint256",
              "internalType": "uint256"
            },
            {
              "name": "WalletAddress",
              "type": "address",
              "internalType": "address"
            },
            {
              "name": "paymentStatus",
              "type": "uint8",
              "internalType": "enum ICustomerManagementStorage.PaymentStatus"
            },
            {
              "name": "addressLocal",
              "type": "tuple",
              "internalType": "struct ICustomerManagementStorage.AddressLocal",
              "components": [
                {
                  "name": "City",
                  "type": "string",
                  "internalType": "string"
                },
                {
                  "name": "Street",
                  "type": "string",
                  "internalType": "string"
                },
                {
                  "name": "PostalCode",
                  "type": "uint256",
                  "internalType": "uint256"
                },
                {
                  "name": "HouseNumber",
                  "type": "uint256",
                  "internalType": "uint256"
                }
              ]
            }
          ]
        }
      ],
      "stateMutability": "view"
    },
    {
      "type": "function",
      "name": "getClientsByAge",
      "inputs": [
        {
          "name": "age",
          "type": "uint256",
          "internalType": "uint256"
        }
      ],
      "outputs": [
        {
          "name": "",
          "type": "tuple",
          "internalType": "struct ICustomerManagementStorage.ClientData",
          "components": [
            {
              "name": "clientId",
              "type": "uint256",
              "internalType": "uint256"
            },
            {
              "name": "name",
              "type": "string",
              "internalType": "string"
            },
            {
              "name": "age",
              "type": "uint256",
              "internalType": "uint256"
            },
            {
              "name": "WalletAddress",
              "type": "address",
              "internalType": "address"
            },
            {
              "name": "paymentStatus",
              "type": "uint8",
              "internalType": "enum ICustomerManagementStorage.PaymentStatus"
            },
            {
              "name": "addressLocal",
              "type": "tuple",
              "internalType": "struct ICustomerManagementStorage.AddressLocal",
              "components": [
                {
                  "name": "City",
                  "type": "string",
                  "internalType": "string"
                },
                {
                  "name": "Street",
                  "type": "string",
                  "internalType": "string"
                },
                {
                  "name": "PostalCode",
                  "type": "uint256",
                  "internalType": "uint256"
                },
                {
                  "name": "HouseNumber",
                  "type": "uint256",
                  "internalType": "uint256"
                }
              ]
            }
          ]
        }
      ],
      "stateMutability": "view"
    },
    {
      "type": "function",
      "name": "getClientsByName",
      "inputs": [
        {
          "name": "name",
          "type": "string",
          "internalType": "string"
        }
      ],
      "outputs": [
        {
          "name": "",
          "type": "tuple",
          "internalType": "struct ICustomerManagementStorage.ClientData",
          "components": [
            {
              "name": "clientId",
              "type": "uint256",
              "internalType": "uint256"
            },
            {
              "name": "name",
              "type": "string",
              "internalType": "string"
            },
            {
              "name": "age",
              "type": "uint256",
              "internalType": "uint256"
            },
            {
              "name": "WalletAddress",
              "type": "address",
              "internalType": "address"
            },
            {
              "name": "paymentStatus",
              "type": "uint8",
              "internalType": "enum ICustomerManagementStorage.PaymentStatus"
            },
            {
              "name": "addressLocal",
              "type": "tuple",
              "internalType": "struct ICustomerManagementStorage.AddressLocal",
              "components": [
                {
                  "name": "City",
                  "type": "string",
                  "internalType": "string"
                },
                {
                  "name": "Street",
                  "type": "string",
                  "internalType": "string"
                },
                {
                  "name": "PostalCode",
                  "type": "uint256",
                  "internalType": "uint256"
                },
                {
                  "name": "HouseNumber",
                  "type": "uint256",
                  "internalType": "uint256"
                }
              ]
            }
          ]
        }
      ],
      "stateMutability": "view"
    },
    {
      "type": "function",
      "name": "getNextId",
      "inputs": [],
      "outputs": [
        {
          "name": "",
          "type": "uint256",
          "internalType": "uint256"
        }
      ],
      "stateMutability": "nonpayable"
    },
    {
      "type": "function",
      "name": "getUserTokenID",
      "inputs": [
        {
          "name": "userAddress",
          "type": "address",
          "internalType": "address"
        }
      ],
      "outputs": [
        {
          "name": "",
          "type": "uint256",
          "internalType": "uint256"
        }
      ],
      "stateMutability": "view"
    },
    {
      "type": "function",
      "name": "getVersion",
      "inputs": [],
      "outputs": [
        {
          "name": "",
          "type": "string",
          "internalType": "string"
        }
      ],
      "stateMutability": "pure"
    },
    {
      "type": "function",
      "name": "initialize",
      "inputs": [],
      "outputs": [],
      "stateMutability": "nonpayable"
    },
    {
      "type": "function",
      "name": "isClientExists",
      "inputs": [
        {
          "name": "clientId",
          "type": "uint256",
          "internalType": "uint256"
        }
      ],
      "outputs": [
        {
          "name": "",
          "type": "bool",
          "internalType": "bool"
        }
      ],
      "stateMutability": "view"
    },
    {
      "type": "function",
      "name": "owner",
      "inputs": [],
      "outputs": [
        {
          "name": "",
          "type": "address",
          "internalType": "address"
        }
      ],
      "stateMutability": "view"
    },
    {
      "type": "function",
      "name": "proxiableUUID",
      "inputs": [],
      "outputs": [
        {
          "name": "",
          "type": "bytes32",
          "internalType": "bytes32"
        }
      ],
      "stateMutability": "view"
    },
    {
      "type": "function",
      "name": "registerClient",
      "inputs": [
        {
          "name": "newClient",
          "type": "tuple",
          "internalType": "struct ICustomerManagementStorage.ClientDataInput",
          "components": [
            {
              "name": "name",
              "type": "string",
              "internalType": "string"
            },
            {
              "name": "age",
              "type": "uint256",
              "internalType": "uint256"
            },
            {
              "name": "WalletAddress",
              "type": "address",
              "internalType": "address"
            },
            {
              "name": "paymentStatus",
              "type": "uint8",
              "internalType": "enum ICustomerManagementStorage.PaymentStatus"
            },
            {
              "name": "addressLocal",
              "type": "tuple",
              "internalType": "struct ICustomerManagementStorage.AddressLocal",
              "components": [
                {
                  "name": "City",
                  "type": "string",
                  "internalType": "string"
                },
                {
                  "name": "Street",
                  "type": "string",
                  "internalType": "string"
                },
                {
                  "name": "PostalCode",
                  "type": "uint256",
                  "internalType": "uint256"
                },
                {
                  "name": "HouseNumber",
                  "type": "uint256",
                  "internalType": "uint256"
                }
              ]
            }
          ]
        }
      ],
      "outputs": [],
      "stateMutability": "nonpayable"
    },
    {
      "type": "function",
      "name": "renounceOwnership",
      "inputs": [],
      "outputs": [],
      "stateMutability": "nonpayable"
    },
    {
      "type": "function",
      "name": "transferOwnership",
      "inputs": [
        {
          "name": "newOwner",
          "type": "address",
          "internalType": "address"
        }
      ],
      "outputs": [],
      "stateMutability": "nonpayable"
    },
    {
      "type": "function",
      "name": "upgradeToAndCall",
      "inputs": [
        {
          "name": "newImplementation",
          "type": "address",
          "internalType": "address"
        },
        {
          "name": "data",
          "type": "bytes",
          "internalType": "bytes"
        }
      ],
      "outputs": [],
      "stateMutability": "payable"
    },
    {
      "type": "function",
      "name": "userTokenIDs",
      "inputs": [
        {
          "name": "",
          "type": "address",
          "internalType": "address"
        }
      ],
      "outputs": [
        {
          "name": "",
          "type": "uint256",
          "internalType": "uint256"
        }
      ],
      "stateMutability": "view"
    },
    {
      "type": "event",
      "name": "ClientRegistered",
      "inputs": [
        {
          "name": "clientId",
          "type": "uint256",
          "indexed": true,
          "internalType": "uint256"
        },
        {
          "name": "name",
          "type": "string",
          "indexed": false,
          "internalType": "string"
        },
        {
          "name": "age",
          "type": "uint256",
          "indexed": false,
          "internalType": "uint256"
        }
      ],
      "anonymous": false
    },
    {
      "type": "event",
      "name": "Initialized",
      "inputs": [
        {
          "name": "version",
          "type": "uint64",
          "indexed": false,
          "internalType": "uint64"
        }
      ],
      "anonymous": false
    },
    {
      "type": "event",
      "name": "OwnershipTransferred",
      "inputs": [
        {
          "name": "previousOwner",
          "type": "address",
          "indexed": true,
          "internalType": "address"
        },
        {
          "name": "newOwner",
          "type": "address",
          "indexed": true,
          "internalType": "address"
        }
      ],
      "anonymous": false
    },
    {
      "type": "event",
      "name": "Upgraded",
      "inputs": [
        {
          "name": "implementation",
          "type": "address",
          "indexed": true,
          "internalType": "address"
        }
      ],
      "anonymous": false
    },
    {
      "type": "error",
      "name": "AddressEmptyCode",
      "inputs": [
        {
          "name": "target",
          "type": "address",
          "internalType": "address"
        }
      ]
    },
    {
      "type": "error",
      "name": "ClientAlreadyExists",
      "inputs": [
        {
          "name": "WalletAddress",
          "type": "address",
          "internalType": "address"
        }
      ]
    },
    {
      "type": "error",
      "name": "ClientExists",
      "inputs": [
        {
          "name": "clientId",
          "type": "uint256",
          "internalType": "uint256"
        }
      ]
    },
    {
      "type": "error",
      "name": "ERC1967InvalidImplementation",
      "inputs": [
        {
          "name": "implementation",
          "type": "address",
          "internalType": "address"
        }
      ]
    },
    {
      "type": "error",
      "name": "ERC1967NonPayable",
      "inputs": []
    },
    {
      "type": "error",
      "name": "EmptyParameter",
      "inputs": [
        {
          "name": "message",
          "type": "string",
          "internalType": "string"
        }
      ]
    },
    {
      "type": "error",
      "name": "FailedInnerCall",
      "inputs": []
    },
    {
      "type": "error",
      "name": "InvalidClientID",
      "inputs": [
        {
          "name": "clientId",
          "type": "uint256",
          "internalType": "uint256"
        }
      ]
    },
    {
      "type": "error",
      "name": "InvalidInitialization",
      "inputs": []
    },
    {
      "type": "error",
      "name": "InvalidPaymentStatus",
      "inputs": [
        {
          "name": "status",
          "type": "uint8",
          "internalType": "enum ICustomerManagementStorage.PaymentStatus"
        }
      ]
    },
    {
      "type": "error",
      "name": "NotInitializing",
      "inputs": []
    },
    {
      "type": "error",
      "name": "OwnableInvalidOwner",
      "inputs": [
        {
          "name": "owner",
          "type": "address",
          "internalType": "address"
        }
      ]
    },
    {
      "type": "error",
      "name": "OwnableUnauthorizedAccount",
      "inputs": [
        {
          "name": "account",
          "type": "address",
          "internalType": "address"
        }
      ]
    },
    {
      "type": "error",
      "name": "UUPSUnauthorizedCallContext",
      "inputs": []
    },
    {
      "type": "error",
      "name": "UUPSUnsupportedProxiableUUID",
      "inputs": [
        {
          "name": "slot",
          "type": "bytes32",
          "internalType": "bytes32"
        }
      ]
    }
  ],
  "bytecode": {
    "object": "0x60a06040523060805234801561001457600080fd5b50608051611f2361003e60003960008181610cbe01528181610ce70152610e2d0152611f236000f3fe60806040526004361061011f5760003560e01c80638da5cb5b116100a0578063d13a3f8011610064578063d13a3f8014610372578063e00dd16114610392578063e3807f7b146103a8578063f2fde38b146103c8578063fbfeeffd146103e857600080fd5b80638da5cb5b1461029f578063ad3cb1cc146102dc578063ba5662e81461030d578063bc9683261461032d578063c6123bd01461034257600080fd5b80634f1ef286116100e75780634f1ef2861461022b57806351f0fe341461024057806352d1902d14610260578063715018a6146102755780638129fc1c1461028a57600080fd5b80630d8e6e2c146101245780631bbc9f4814610162578063261b514a1461018257806342324d7b146101ba578063423411b1146101e7575b600080fd5b34801561013057600080fd5b506040805180820190915260038152620c4b8d60ea1b60208201525b6040516101599190611971565b60405180910390f35b34801561016e57600080fd5b5061014c61017d366004611984565b610415565b34801561018e57600080fd5b506101a261019d366004611984565b6104ea565b6040516001600160a01b039091168152602001610159565b3480156101c657600080fd5b506101da6101d5366004611a29565b610536565b6040516101599190611ab2565b3480156101f357600080fd5b5061021d610202366004611b85565b6001600160a01b031660009081526006602052604090205490565b604051908152602001610159565b61023e610239366004611ba0565b6107e0565b005b34801561024c57600080fd5b506101da61025b366004611b85565b6107ff565b34801561026c57600080fd5b5061021d61082f565b34801561028157600080fd5b5061023e61084c565b34801561029657600080fd5b5061023e610860565b3480156102ab57600080fd5b507f9016d09d72d40fdae2fd8ceac6b6234c7706214fd39c1cd1e609a0528c199300546001600160a01b03166101a2565b3480156102e857600080fd5b5061014c604051806040016040528060058152602001640352e302e360dc1b81525081565b34801561031957600080fd5b5061023e610328366004611c02565b610978565b34801561033957600080fd5b5061021d610984565b34801561034e57600080fd5b5061036261035d366004611984565b61099e565b6040519015158152602001610159565b34801561037e57600080fd5b506101da61038d366004611984565b6109c7565b34801561039e57600080fd5b5061021d60005481565b3480156103b457600080fd5b506101da6103c3366004611984565b6109ed565b3480156103d457600080fd5b5061023e6103e3366004611b85565b610c78565b3480156103f457600080fd5b5061021d610403366004611b85565b60066020526000908152604090205481565b6060816104218161099e565b6104465760405163a648038b60e01b8152600481018290526024015b60405180910390fd5b600083815260016020819052604090912001805461046390611c3d565b80601f016020809104026020016040519081016040528092919081815260200182805461048f90611c3d565b80156104dc5780601f106104b1576101008083540402835291602001916104dc565b820191906000526020600020905b8154815290600101906020018083116104bf57829003601f168201915b505050505091505b50919050565b6000816104f68161099e565b6105165760405163a648038b60e01b81526004810182905260240161043d565b50506000908152600160205260409020600301546001600160a01b031690565b61053e6118a9565b60006002836040516105509190611c71565b908152602001604051809103902060008154811061057057610570611c8d565b906000526020600020015490506000600160008381526020019081526020016000206040518060c0016040529081600082015481526020016001820180546105b790611c3d565b80601f01602080910402602001604051908101604052809291908181526020018280546105e390611c3d565b80156106305780601f1061060557610100808354040283529160200191610630565b820191906000526020600020905b81548152906001019060200180831161061357829003601f168201915b50505091835250506002820154602082015260038201546001600160a01b0381166040830152606090910190600160a01b900460ff16600181111561067757610677611a7a565b600181111561068857610688611a7a565b8152602001600482016040518060800160405290816000820180546106ac90611c3d565b80601f01602080910402602001604051908101604052809291908181526020018280546106d890611c3d565b80156107255780601f106106fa57610100808354040283529160200191610725565b820191906000526020600020905b81548152906001019060200180831161070857829003601f168201915b5050505050815260200160018201805461073e90611c3d565b80601f016020809104026020016040519081016040528092919081815260200182805461076a90611c3d565b80156107b75780601f1061078c576101008083540402835291602001916107b7565b820191906000526020600020905b81548152906001019060200180831161079a57829003601f168201915b505050918352505060028201546020820152600390910154604090910152905250949350505050565b6107e8610cb3565b6107f182610d58565b6107fb8282610d60565b5050565b6108076118a9565b6001600160a01b03821660009081526003602052604081208054829061057057610570611c8d565b6000610839610e22565b50600080516020611ece83398151915290565b610854610e6b565b61085e6000610ec6565b565b7ff0c57e16840df040f15088dc2f81fe391c3923bec73e23a9662efc9c229c6a008054600160401b810460ff16159067ffffffffffffffff166000811580156108a65750825b905060008267ffffffffffffffff1660011480156108c35750303b155b9050811580156108d1575080155b156108ef5760405163f92ee8a960e01b815260040160405180910390fd5b845467ffffffffffffffff19166001178555831561091957845460ff60401b1916600160401b1785555b61092260008055565b61092b33610f37565b831561097157845460ff60401b19168555604051600181527fc7f505b2f371ae2175ee4913f4499e1f2633a7b5936321eed1cdaeb6115181d29060200160405180910390a15b5050505050565b61098181610f48565b50565b6000806000815461099490611ca3565b9182905550919050565b600081815260016020819052604082200180548291906109bd90611c3d565b9050119050919050565b6109cf6118a9565b60008281526004602052604081208054829061057057610570611c8d565b6109f56118a9565b816109ff8161099e565b610a1f5760405163a648038b60e01b81526004810182905260240161043d565b600083815260016020818152604092839020835160c0810190945280548452918201805491840191610a5090611c3d565b80601f0160208091040260200160405190810160405280929190818152602001828054610a7c90611c3d565b8015610ac95780601f10610a9e57610100808354040283529160200191610ac9565b820191906000526020600020905b815481529060010190602001808311610aac57829003601f168201915b50505091835250506002820154602082015260038201546001600160a01b0381166040830152606090910190600160a01b900460ff166001811115610b1057610b10611a7a565b6001811115610b2157610b21611a7a565b815260200160048201604051806080016040529081600082018054610b4590611c3d565b80601f0160208091040260200160405190810160405280929190818152602001828054610b7190611c3d565b8015610bbe5780601f10610b9357610100808354040283529160200191610bbe565b820191906000526020600020905b815481529060010190602001808311610ba157829003601f168201915b50505050508152602001600182018054610bd790611c3d565b80601f0160208091040260200160405190810160405280929190818152602001828054610c0390611c3d565b8015610c505780601f10610c2557610100808354040283529160200191610c50565b820191906000526020600020905b815481529060010190602001808311610c3357829003601f168201915b5050509183525050600282015460208201526003909101546040909101529052509392505050565b610c80610e6b565b6001600160a01b038116610caa57604051631e4fbdf760e01b81526000600482015260240161043d565b61098181610ec6565b306001600160a01b037f0000000000000000000000000000000000000000000000000000000000000000161480610d3a57507f00000000000000000000000000000000000000000000000000000000000000006001600160a01b0316610d2e600080516020611ece833981519152546001600160a01b031690565b6001600160a01b031614155b1561085e5760405163703e46dd60e11b815260040160405180910390fd5b610981610e6b565b816001600160a01b03166352d1902d6040518163ffffffff1660e01b8152600401602060405180830381865afa925050508015610dba575060408051601f3d908101601f19168201909252610db791810190611cca565b60015b610de257604051634c9c8ce360e01b81526001600160a01b038316600482015260240161043d565b600080516020611ece8339815191528114610e1357604051632a87526960e21b81526004810182905260240161043d565b610e1d8383611358565b505050565b306001600160a01b037f0000000000000000000000000000000000000000000000000000000000000000161461085e5760405163703e46dd60e11b815260040160405180910390fd5b33610e9d7f9016d09d72d40fdae2fd8ceac6b6234c7706214fd39c1cd1e609a0528c199300546001600160a01b031690565b6001600160a01b03161461085e5760405163118cdaa760e01b815233600482015260240161043d565b7f9016d09d72d40fdae2fd8ceac6b6234c7706214fd39c1cd1e609a0528c19930080546001600160a01b031981166001600160a01b03848116918217845560405192169182907f8be0079c531659141344cd1fd0a4f28419497f9722a3daafe3b4186f6b6457e090600090a3505050565b610f3f6113ae565b610981816113f7565b610f60610f5b6080830160608401611ce3565b6113ff565b610f6981611453565b610f81610f7c6060830160408401611b85565b61157b565b6000610f8b610984565b90508060066000610fa26060860160408701611b85565b6001600160a01b03166001600160a01b031681526020019081526020016000208190555060006040518060800160405280848060800190610fe39190611d04565b610fed9080611d1a565b8080601f0160208091040260200160405190810160405280939291908181526020018383808284376000920191909152505050908252506020016110346080860186611d04565b611042906020810190611d1a565b8080601f0160208091040260200160405190810160405280939291908181526020018383808284376000920191909152505050908252506020016110896080860186611d04565b60400135815260200161109f6080860186611d04565b6060013590526040805160c08101909152838152909150600090602081016110c78680611d1a565b8080601f0160208091040260200160405190810160405280939291908181526020018383808284376000920191909152505050908252506020868101359082015260409081019061111e9060608801908801611b85565b6001600160a01b0316815260200161113c6080870160608801611ce3565b600181111561114d5761114d611a7a565b8152602090810184905260008581526001808352604090912083518155918301519293508392908201906111819082611db6565b506040820151600282015560608201516003820180546001600160a01b039092166001600160a01b03198316811782556080850151926001600160a81b03191617600160a01b8360018111156111d9576111d9611a7a565b021790555060a08201518051600483019081906111f69082611db6565b506020820151600182019061120b9082611db6565b506040820151816002015560608201518160030155505090505060016005600086604001602081019061123e9190611b85565b6001600160a01b031681526020810191909152604001600020805460ff191691151591909117905560026112728580611d1a565b604051611280929190611e76565b908152604080516020928190038301902080546001810182556000918252928120909201859055600391906112bb9060608801908801611b85565b6001600160a01b031681526020808201929092526040908101600090812080546001818101835591835284832001879055878401358252600484529181208054928301815581529190912001839055827fc4241fa8b2b4f002c6b10f7f933e9484aeec52065a1a639c9699964a42c242406113368680611d1a565b876020013560405161134a93929190611e86565b60405180910390a250505050565b611361826115c0565b6040516001600160a01b038316907fbc7cd75a20ee27fd9adebab32041f755214dbc6bffa90cc0225b39da2e5c2d3b90600090a28051156113a657610e1d8282611625565b6107fb61169d565b7ff0c57e16840df040f15088dc2f81fe391c3923bec73e23a9662efc9c229c6a0054600160401b900460ff1661085e57604051631afcd79f60e31b815260040160405180910390fd5b610c806113ae565b600081600181111561141357611413611a7a565b141580156114335750600181600181111561143057611430611a7a565b14155b1561098157806040516367f4cb9560e01b815260040161043d9190611ebf565b61145d8180611d1a565b90506000036114af576040516346cf674760e11b815260206004820152601760248201527f49742063616e6e6f7420626520656d707479206e616d65000000000000000000604482015260640161043d565b80602001356000036114fd576040516346cf674760e11b815260206004820152601660248201527549742063616e6e6f7420626520656d7074792061676560501b604482015260640161043d565b600061150f6060830160408401611b85565b6001600160a01b031603611566576040516346cf674760e11b815260206004820181905260248201527f49742063616e6e6f7420626520656d7074792057616c6c657441646472657373604482015260640161043d565b6109816115766080830183611d04565b6116bc565b6001600160a01b03811660009081526005602052604090205460ff161561098157604051634973bdaf60e01b81526001600160a01b038216600482015260240161043d565b806001600160a01b03163b6000036115f657604051634c9c8ce360e01b81526001600160a01b038216600482015260240161043d565b600080516020611ece83398151915280546001600160a01b0319166001600160a01b0392909216919091179055565b6060600080846001600160a01b0316846040516116429190611c71565b600060405180830381855af49150503d806000811461167d576040519150601f19603f3d011682016040523d82523d6000602084013e611682565b606091505b5091509150611692858383611821565b925050505b92915050565b341561085e5760405163b398979f60e01b815260040160405180910390fd5b6116c68180611d1a565b9050600003611718576040516346cf674760e11b815260206004820152601760248201527f49742063616e6e6f7420626520656d7074792043697479000000000000000000604482015260640161043d565b6117256020820182611d1a565b9050600003611777576040516346cf674760e11b815260206004820152601960248201527f49742063616e6e6f7420626520656d7074792053747265657400000000000000604482015260640161043d565b80604001356000036117cc576040516346cf674760e11b815260206004820152601d60248201527f49742063616e6e6f7420626520656d70747920506f7374616c436f6465000000604482015260640161043d565b8060600135600003610981576040516346cf674760e11b815260206004820152601e60248201527f49742063616e6e6f7420626520656d70747920486f7573654e756d6265720000604482015260640161043d565b6060826118365761183182611880565b611879565b815115801561184d57506001600160a01b0384163b155b1561187657604051639996b31560e01b81526001600160a01b038516600482015260240161043d565b50805b9392505050565b8051156118905780518082602001fd5b604051630a12f52160e11b815260040160405180910390fd5b6040518060c0016040528060008152602001606081526020016000815260200160006001600160a01b03168152602001600060018111156118ec576118ec611a7a565b815260200161191c6040518060800160405280606081526020016060815260200160008152602001600081525090565b905290565b60005b8381101561193c578181015183820152602001611924565b50506000910152565b6000815180845261195d816020860160208601611921565b601f01601f19169290920160200192915050565b6020815260006118796020830184611945565b60006020828403121561199657600080fd5b5035919050565b634e487b7160e01b600052604160045260246000fd5b600067ffffffffffffffff808411156119ce576119ce61199d565b604051601f8501601f19908116603f011681019082821181831017156119f6576119f661199d565b81604052809350858152868686011115611a0f57600080fd5b858560208301376000602087830101525050509392505050565b600060208284031215611a3b57600080fd5b813567ffffffffffffffff811115611a5257600080fd5b8201601f81018413611a6357600080fd5b611a72848235602084016119b3565b949350505050565b634e487b7160e01b600052602160045260246000fd5b60028110611aae57634e487b7160e01b600052602160045260246000fd5b9052565b60208152815160208201526000602083015160c06040840152611ad860e0840182611945565b90506040840151606084015260018060a01b0360608501511660808401526080840151611b0860a0850182611a90565b5060a0840151601f198483030160c0850152805160808352611b2d6080840182611945565b905060208201518382036020850152611b468282611945565b915050604082015160408401526060820151606084015280935050505092915050565b80356001600160a01b0381168114611b8057600080fd5b919050565b600060208284031215611b9757600080fd5b61187982611b69565b60008060408385031215611bb357600080fd5b611bbc83611b69565b9150602083013567ffffffffffffffff811115611bd857600080fd5b8301601f81018513611be957600080fd5b611bf8858235602084016119b3565b9150509250929050565b600060208284031215611c1457600080fd5b813567ffffffffffffffff811115611c2b57600080fd5b820160a0818503121561187957600080fd5b600181811c90821680611c5157607f821691505b6020821081036104e457634e487b7160e01b600052602260045260246000fd5b60008251611c83818460208701611921565b9190910192915050565b634e487b7160e01b600052603260045260246000fd5b600060018201611cc357634e487b7160e01b600052601160045260246000fd5b5060010190565b600060208284031215611cdc57600080fd5b5051919050565b600060208284031215611cf557600080fd5b81356002811061187957600080fd5b60008235607e19833603018112611c8357600080fd5b6000808335601e19843603018112611d3157600080fd5b83018035915067ffffffffffffffff821115611d4c57600080fd5b602001915036819003821315611d6157600080fd5b9250929050565b601f821115610e1d57600081815260208120601f850160051c81016020861015611d8f5750805b601f850160051c820191505b81811015611dae57828155600101611d9b565b505050505050565b815167ffffffffffffffff811115611dd057611dd061199d565b611de481611dde8454611c3d565b84611d68565b602080601f831160018114611e195760008415611e015750858301515b600019600386901b1c1916600185901b178555611dae565b600085815260208120601f198616915b82811015611e4857888601518255948401946001909101908401611e29565b5085821015611e665787850151600019600388901b60f8161c191681555b5050505050600190811b01905550565b8183823760009101908152919050565b604081528260408201528284606083013760006060848301015260006060601f19601f8601168301019050826020830152949350505050565b602081016116978284611a9056fe360894a13ba1a3210667c828492db98dca3e2076cc3735a920a3ca505d382bbca26469706673582212204d4ad0c0777f412dce4b6f45a3cc4e97400de4ad95d17b2bad92c2f7ccd8dfea64736f6c63430008150033",
    "linkReferences": {}
  },
  "methodIdentifiers": {
    "UPGRADE_INTERFACE_VERSION()": "ad3cb1cc",
    "currentId()": "e00dd161",
    "getClientData(uint256)": "e3807f7b",
    "getClientName(uint256)": "1bbc9f48",
    "getClientWalletAddress(uint256)": "261b514a",
    "getClientsByAddress(address)": "51f0fe34",
    "getClientsByAge(uint256)": "d13a3f80",
    "getClientsByName(string)": "42324d7b",
    "getNextId()": "bc968326",
    "getUserTokenID(address)": "423411b1",
    "getVersion()": "0d8e6e2c",
    "initialize()": "8129fc1c",
    "isClientExists(uint256)": "c6123bd0",
    "owner()": "8da5cb5b",
    "proxiableUUID()": "52d1902d",
    "registerClient((string,uint256,address,uint8,(string,string,uint256,uint256)))": "ba5662e8",
    "renounceOwnership()": "715018a6",
    "transferOwnership(address)": "f2fde38b",
    "upgradeToAndCall(address,bytes)": "4f1ef286",
    "userTokenIDs(address)": "fbfeeffd"
  },
  "id": 0
}