{"abi":[{"type":"function","name":"CUSTOMER_GOLD","inputs":[],"outputs":[{"name":"","type":"uint256","internalType":"uint256"}],"stateMutability":"view"},{"type":"function","name":"CUSTOMER_PREMIUM","inputs":[],"outputs":[{"name":"","type":"uint256","internalType":"uint256"}],"stateMutability":"view"},{"type":"function","name":"CUSTOMER_TITANIUM","inputs":[],"outputs":[{"name":"","type":"uint256","internalType":"uint256"}],"stateMutability":"view"},{"type":"function","name":"UPGRADE_INTERFACE_VERSION","inputs":[],"outputs":[{"name":"","type":"string","internalType":"string"}],"stateMutability":"view"},{"type":"function","name":"addPoints","inputs":[{"name":"clientId","type":"uint256","internalType":"uint256"},{"name":"points","type":"uint256","internalType":"uint256"}],"outputs":[],"stateMutability":"nonpayable"},{"type":"function","name":"balanceOf","inputs":[{"name":"account","type":"address","internalType":"address"},{"name":"id","type":"uint256","internalType":"uint256"}],"outputs":[{"name":"","type":"uint256","internalType":"uint256"}],"stateMutability":"view"},{"type":"function","name":"balanceOfBatch","inputs":[{"name":"accounts","type":"address[]","internalType":"address[]"},{"name":"ids","type":"uint256[]","internalType":"uint256[]"}],"outputs":[{"name":"","type":"uint256[]","internalType":"uint256[]"}],"stateMutability":"view"},{"type":"function","name":"burnToken","inputs":[{"name":"account","type":"address","internalType":"address"},{"name":"id","type":"uint256","internalType":"uint256"},{"name":"amount","type":"uint256","internalType":"uint256"}],"outputs":[],"stateMutability":"nonpayable"},{"type":"function","name":"clientLevel","inputs":[{"name":"","type":"uint256","internalType":"uint256"}],"outputs":[{"name":"","type":"uint256","internalType":"uint256"}],"stateMutability":"view"},{"type":"function","name":"customerManagerInstance","inputs":[],"outputs":[{"name":"","type":"address","internalType":"contract CustomerManagementCore"}],"stateMutability":"view"},{"type":"function","name":"drexToken","inputs":[],"outputs":[{"name":"","type":"address","internalType":"contract IERC20"}],"stateMutability":"view"},{"type":"function","name":"getClientLevel","inputs":[{"name":"clientId","type":"uint256","internalType":"uint256"}],"outputs":[{"name":"","type":"uint256","internalType":"uint256"}],"stateMutability":"view"},{"type":"function","name":"getClientPoints","inputs":[{"name":"clientId","type":"uint256","internalType":"uint256"}],"outputs":[{"name":"","type":"uint256","internalType":"uint256"}],"stateMutability":"view"},{"type":"function","name":"getVersion","inputs":[],"outputs":[{"name":"","type":"string","internalType":"string"}],"stateMutability":"pure"},{"type":"function","name":"initialize","inputs":[{"name":"_customerManagerInstanceAddress","type":"address","internalType":"address"},{"name":"uri","type":"string","internalType":"string"}],"outputs":[],"stateMutability":"nonpayable"},{"type":"function","name":"isApprovedForAll","inputs":[{"name":"account","type":"address","internalType":"address"},{"name":"operator","type":"address","internalType":"address"}],"outputs":[{"name":"","type":"bool","internalType":"bool"}],"stateMutability":"view"},{"type":"function","name":"metadataURI","inputs":[],"outputs":[{"name":"","type":"string","internalType":"string"}],"stateMutability":"view"},{"type":"function","name":"mint","inputs":[{"name":"account","type":"address","internalType":"address"},{"name":"nftId","type":"uint256","internalType":"uint256"},{"name":"amount","type":"uint256","internalType":"uint256"}],"outputs":[],"stateMutability":"nonpayable"},{"type":"function","name":"owner","inputs":[],"outputs":[{"name":"","type":"address","internalType":"address"}],"stateMutability":"view"},{"type":"function","name":"pointsForGold","inputs":[],"outputs":[{"name":"","type":"uint256","internalType":"uint256"}],"stateMutability":"view"},{"type":"function","name":"pointsForPremium","inputs":[],"outputs":[{"name":"","type":"uint256","internalType":"uint256"}],"stateMutability":"view"},{"type":"function","name":"pointsForTitanium","inputs":[],"outputs":[{"name":"","type":"uint256","internalType":"uint256"}],"stateMutability":"view"},{"type":"function","name":"proxiableUUID","inputs":[],"outputs":[{"name":"","type":"bytes32","internalType":"bytes32"}],"stateMutability":"view"},{"type":"function","name":"removePoints","inputs":[{"name":"clientId","type":"uint256","internalType":"uint256"},{"name":"points","type":"uint256","internalType":"uint256"}],"outputs":[],"stateMutability":"nonpayable"},{"type":"function","name":"renounceOwnership","inputs":[],"outputs":[],"stateMutability":"nonpayable"},{"type":"function","name":"safeBatchTransferFrom","inputs":[{"name":"from","type":"address","internalType":"address"},{"name":"to","type":"address","internalType":"address"},{"name":"ids","type":"uint256[]","internalType":"uint256[]"},{"name":"values","type":"uint256[]","internalType":"uint256[]"},{"name":"data","type":"bytes","internalType":"bytes"}],"outputs":[],"stateMutability":"nonpayable"},{"type":"function","name":"safeTransferFrom","inputs":[{"name":"from","type":"address","internalType":"address"},{"name":"to","type":"address","internalType":"address"},{"name":"id","type":"uint256","internalType":"uint256"},{"name":"value","type":"uint256","internalType":"uint256"},{"name":"data","type":"bytes","internalType":"bytes"}],"outputs":[],"stateMutability":"nonpayable"},{"type":"function","name":"setApprovalForAll","inputs":[{"name":"operator","type":"address","internalType":"address"},{"name":"approved","type":"bool","internalType":"bool"}],"outputs":[],"stateMutability":"nonpayable"},{"type":"function","name":"setPointThresholds","inputs":[{"name":"premium","type":"uint256","internalType":"uint256"},{"name":"gold","type":"uint256","internalType":"uint256"},{"name":"titanium","type":"uint256","internalType":"uint256"}],"outputs":[],"stateMutability":"nonpayable"},{"type":"function","name":"setPointsTokenAddress","inputs":[{"name":"tokenAddress","type":"address","internalType":"address"}],"outputs":[],"stateMutability":"nonpayable"},{"type":"function","name":"supportsInterface","inputs":[{"name":"interfaceId","type":"bytes4","internalType":"bytes4"}],"outputs":[{"name":"","type":"bool","internalType":"bool"}],"stateMutability":"view"},{"type":"function","name":"tokenURI","inputs":[{"name":"tokenId","type":"uint256","internalType":"uint256"}],"outputs":[{"name":"","type":"string","internalType":"string"}],"stateMutability":"view"},{"type":"function","name":"transferOwnership","inputs":[{"name":"newOwner","type":"address","internalType":"address"}],"outputs":[],"stateMutability":"nonpayable"},{"type":"function","name":"upgradeToAndCall","inputs":[{"name":"newImplementation","type":"address","internalType":"address"},{"name":"data","type":"bytes","internalType":"bytes"}],"outputs":[],"stateMutability":"payable"},{"type":"function","name":"uri","inputs":[{"name":"","type":"uint256","internalType":"uint256"}],"outputs":[{"name":"","type":"string","internalType":"string"}],"stateMutability":"view"},{"type":"event","name":"ApprovalForAll","inputs":[{"name":"account","type":"address","indexed":true,"internalType":"address"},{"name":"operator","type":"address","indexed":true,"internalType":"address"},{"name":"approved","type":"bool","indexed":false,"internalType":"bool"}],"anonymous":false},{"type":"event","name":"ClientPointsChanged","inputs":[{"name":"clientId","type":"uint256","indexed":true,"internalType":"uint256"},{"name":"newPoints","type":"uint256","indexed":false,"internalType":"uint256"}],"anonymous":false},{"type":"event","name":"ClientPointsReset","inputs":[{"name":"clientId","type":"uint256","indexed":true,"internalType":"uint256"}],"anonymous":false},{"type":"event","name":"CustomerGoldBurned","inputs":[{"name":"clientId","type":"uint256","indexed":true,"internalType":"uint256"},{"name":"clientAddress","type":"address","indexed":false,"internalType":"address"}],"anonymous":false},{"type":"event","name":"CustomerGoldMinted","inputs":[{"name":"clientId","type":"uint256","indexed":true,"internalType":"uint256"},{"name":"clientAddress","type":"address","indexed":false,"internalType":"address"}],"anonymous":false},{"type":"event","name":"CustomerPremiumBurned","inputs":[{"name":"clientId","type":"uint256","indexed":true,"internalType":"uint256"},{"name":"clientAddress","type":"address","indexed":false,"internalType":"address"}],"anonymous":false},{"type":"event","name":"CustomerPremiumMinted","inputs":[{"name":"clientId","type":"uint256","indexed":true,"internalType":"uint256"},{"name":"clientAddress","type":"address","indexed":false,"internalType":"address"}],"anonymous":false},{"type":"event","name":"CustomerTitaniumBurned","inputs":[{"name":"clientId","type":"uint256","indexed":true,"internalType":"uint256"},{"name":"clientAddress","type":"address","indexed":false,"internalType":"address"}],"anonymous":false},{"type":"event","name":"CustomerTitaniumMinted","inputs":[{"name":"clientId","type":"uint256","indexed":true,"internalType":"uint256"},{"name":"clientAddress","type":"address","indexed":false,"internalType":"address"}],"anonymous":false},{"type":"event","name":"Initialized","inputs":[{"name":"version","type":"uint64","indexed":false,"internalType":"uint64"}],"anonymous":false},{"type":"event","name":"OwnershipTransferred","inputs":[{"name":"previousOwner","type":"address","indexed":true,"internalType":"address"},{"name":"newOwner","type":"address","indexed":true,"internalType":"address"}],"anonymous":false},{"type":"event","name":"PointsAdded","inputs":[{"name":"clientId","type":"uint256","indexed":true,"internalType":"uint256"},{"name":"points","type":"uint256","indexed":false,"internalType":"uint256"}],"anonymous":false},{"type":"event","name":"PointsRemoved","inputs":[{"name":"clientId","type":"uint256","indexed":true,"internalType":"uint256"},{"name":"points","type":"uint256","indexed":false,"internalType":"uint256"}],"anonymous":false},{"type":"event","name":"PointsTokenAddressSet","inputs":[{"name":"tokenAddress","type":"address","indexed":true,"internalType":"address"}],"anonymous":false},{"type":"event","name":"TokensTransferred","inputs":[{"name":"clientId","type":"uint256","indexed":true,"internalType":"uint256"},{"name":"amount","type":"uint256","indexed":false,"internalType":"uint256"}],"anonymous":false},{"type":"event","name":"TransferBatch","inputs":[{"name":"operator","type":"address","indexed":true,"internalType":"address"},{"name":"from","type":"address","indexed":true,"internalType":"address"},{"name":"to","type":"address","indexed":true,"internalType":"address"},{"name":"ids","type":"uint256[]","indexed":false,"internalType":"uint256[]"},{"name":"values","type":"uint256[]","indexed":false,"internalType":"uint256[]"}],"anonymous":false},{"type":"event","name":"TransferSingle","inputs":[{"name":"operator","type":"address","indexed":true,"internalType":"address"},{"name":"from","type":"address","indexed":true,"internalType":"address"},{"name":"to","type":"address","indexed":true,"internalType":"address"},{"name":"id","type":"uint256","indexed":false,"internalType":"uint256"},{"name":"value","type":"uint256","indexed":false,"internalType":"uint256"}],"anonymous":false},{"type":"event","name":"URI","inputs":[{"name":"value","type":"string","indexed":false,"internalType":"string"},{"name":"id","type":"uint256","indexed":true,"internalType":"uint256"}],"anonymous":false},{"type":"event","name":"Upgraded","inputs":[{"name":"implementation","type":"address","indexed":true,"internalType":"address"}],"anonymous":false},{"type":"error","name":"AddressEmptyCode","inputs":[{"name":"target","type":"address","internalType":"address"}]},{"type":"error","name":"ERC1155InsufficientBalance","inputs":[{"name":"sender","type":"address","internalType":"address"},{"name":"balance","type":"uint256","internalType":"uint256"},{"name":"needed","type":"uint256","internalType":"uint256"},{"name":"tokenId","type":"uint256","internalType":"uint256"}]},{"type":"error","name":"ERC1155InvalidApprover","inputs":[{"name":"approver","type":"address","internalType":"address"}]},{"type":"error","name":"ERC1155InvalidArrayLength","inputs":[{"name":"idsLength","type":"uint256","internalType":"uint256"},{"name":"valuesLength","type":"uint256","internalType":"uint256"}]},{"type":"error","name":"ERC1155InvalidOperator","inputs":[{"name":"operator","type":"address","internalType":"address"}]},{"type":"error","name":"ERC1155InvalidReceiver","inputs":[{"name":"receiver","type":"address","internalType":"address"}]},{"type":"error","name":"ERC1155InvalidSender","inputs":[{"name":"sender","type":"address","internalType":"address"}]},{"type":"error","name":"ERC1155MissingApprovalForAll","inputs":[{"name":"operator","type":"address","internalType":"address"},{"name":"owner","type":"address","internalType":"address"}]},{"type":"error","name":"ERC1967InvalidImplementation","inputs":[{"name":"implementation","type":"address","internalType":"address"}]},{"type":"error","name":"ERC1967NonPayable","inputs":[]},{"type":"error","name":"FailedInnerCall","inputs":[]},{"type":"error","name":"InsufficientPoints","inputs":[{"name":"available","type":"uint256","internalType":"uint256"},{"name":"required","type":"uint256","internalType":"uint256"}]},{"type":"error","name":"InvalidClientID","inputs":[{"name":"clientId","type":"uint256","internalType":"uint256"}]},{"type":"error","name":"InvalidInitialization","inputs":[]},{"type":"error","name":"NotInitializing","inputs":[]},{"type":"error","name":"OwnableInvalidOwner","inputs":[{"name":"owner","type":"address","internalType":"address"}]},{"type":"error","name":"OwnableUnauthorizedAccount","inputs":[{"name":"account","type":"address","internalType":"address"}]},{"type":"error","name":"UUPSUnauthorizedCallContext","inputs":[]},{"type":"error","name":"UUPSUnsupportedProxiableUUID","inputs":[{"name":"slot","type":"bytes32","internalType":"bytes32"}]}],"bytecode":{"object":"0x60a060405230608052348015601357600080fd5b50608051612f7d61003d60003960008181611490015281816114b901526115fa0152612f7d6000f3fe6080604052600436106102035760003560e01c8063a22cb46511610118578063e0794800116100a0578063ef04cba51161006f578063ef04cba5146105f7578063f242432a14610617578063f2fde38b14610637578063f399e22e14610657578063fe4651a01461067757600080fd5b8063e079480014610577578063e921378d14610597578063e985e9c5146105b7578063ed8c5938146105d757600080fd5b8063bb7b1d8f116100e7578063bb7b1d8f146104f7578063c87b56dd1461050c578063d6d95a8d1461052c578063d754878614610542578063de29d16b1461056257600080fd5b8063a22cb46514610471578063a49fa23c14610491578063ad3cb1cc146104a6578063b756e07b146104d757600080fd5b80632fdd863a1161019b5780635668f3f01161016a5780635668f3f0146103a8578063715018a6146103be5780638da5cb5b146103d357806394d8b2ca146104245780639a77667d1461045157600080fd5b80632fdd863a146103335780634e1273f4146103535780634f1ef2861461038057806352d1902d1461039357600080fd5b80630e89341c116101d75780630e89341c146102bb57806313581688146102db578063156e29f6146102f15780632eb2c2d61461031357600080fd5b8062fdd58e1461020857806301ffc9a71461023b57806303ee438c1461026b5780630d8e6e2c1461028d575b600080fd5b34801561021457600080fd5b506102286102233660046124ff565b610697565b6040519081526020015b60405180910390f35b34801561024757600080fd5b5061025b610256366004612541565b6106ce565b6040519015158152602001610232565b34801561027757600080fd5b5061028061071e565b60405161023291906125ae565b34801561029957600080fd5b506040805180820190915260058152640312e302e360dc1b6020820152610280565b3480156102c757600080fd5b506102806102d63660046125c1565b6107ac565b3480156102e757600080fd5b5061022860065481565b3480156102fd57600080fd5b5061031161030c3660046125da565b610871565b005b34801561031f57600080fd5b5061031161032e366004612760565b6108fd565b34801561033f57600080fd5b5061031161034e366004612817565b610964565b34801561035f57600080fd5b5061037361036e366004612843565b61097a565b6040516102329190612948565b61031161038e36600461295b565b610a46565b34801561039f57600080fd5b50610228610a65565b3480156103b457600080fd5b5061022860055481565b3480156103ca57600080fd5b50610311610a82565b3480156103df57600080fd5b507f9016d09d72d40fdae2fd8ceac6b6234c7706214fd39c1cd1e609a0528c199300546001600160a01b03165b6040516001600160a01b039091168152602001610232565b34801561043057600080fd5b5061022861043f3660046125c1565b60006020819052908152604090205481565b34801561045d57600080fd5b5061022861046c3660046125c1565b610a96565b34801561047d57600080fd5b5061031161048c3660046129ae565b610b3c565b34801561049d57600080fd5b50610228600281565b3480156104b257600080fd5b50610280604051806040016040528060058152602001640352e302e360dc1b81525081565b3480156104e357600080fd5b5060035461040c906001600160a01b031681565b34801561050357600080fd5b50610228600181565b34801561051857600080fd5b506102806105273660046125c1565b610b47565b34801561053857600080fd5b5061022860045481565b34801561054e57600080fd5b5060025461040c906001600160a01b031681565b34801561056e57600080fd5b50610228600381565b34801561058357600080fd5b506103116105923660046129e7565b610bd1565b3480156105a357600080fd5b506102286105b23660046125c1565b610d0a565b3480156105c357600080fd5b5061025b6105d2366004612a09565b610dac565b3480156105e357600080fd5b506103116105f23660046125da565b610df9565b34801561060357600080fd5b50610311610612366004612a37565b610e70565b34801561062357600080fd5b50610311610632366004612a54565b610ec2565b34801561064357600080fd5b50610311610652366004612a37565b610f21565b34801561066357600080fd5b50610311610672366004612ab0565b610f5f565b34801561068357600080fd5b506103116106923660046129e7565b6110af565b6000818152600080516020612f28833981519152602090815260408083206001600160a01b03861684529091529020545b92915050565b60006001600160e01b03198216636cdb3d1360e11b14806106ff57506001600160e01b031982166303a24d0760e21b145b806106c857506301ffc9a760e01b6001600160e01b03198316146106c8565b6007805461072b90612b09565b80601f016020809104026020016040519081016040528092919081815260200182805461075790612b09565b80156107a45780601f10610779576101008083540402835291602001916107a4565b820191906000526020600020905b81548152906001019060200180831161078757829003601f168201915b505050505081565b7f88be536d5240c274a3b1d3a1be54482fd9caa294f08c62a7cde569f49a3c45028054606091600080516020612f28833981519152916107eb90612b09565b80601f016020809104026020016040519081016040528092919081815260200182805461081790612b09565b80156108645780601f1061083957610100808354040283529160200191610864565b820191906000526020600020905b81548152906001019060200180831161084757829003601f168201915b5050505050915050919050565b610879611366565b60018214806108885750600282145b806108935750600382145b6108dd5760405162461bcd60e51b8152602060048201526016602482015275125b9d985b1a590818985919d9481b999d1259081a5960521b60448201526064015b60405180910390fd5b6108f8838383604051806020016040528060008152506113c1565b505050565b336001600160a01b038616811480159061091e575061091c8682610dac565b155b1561094f5760405163711bec9160e11b81526001600160a01b038083166004830152871660248201526044016108d4565b61095c868686868661141e565b505050505050565b61096c611366565b600492909255600555600655565b606081518351146109ab5781518351604051635b05999160e01b8152600481019290925260248201526044016108d4565b600083516001600160401b038111156109c6576109c661260f565b6040519080825280602002602001820160405280156109ef578160200160208202803683370190505b50905060005b8451811015610a3e57602080820286010151610a1990602080840287010151610697565b828281518110610a2b57610a2b612b3d565b60209081029190910101526001016109f5565b509392505050565b610a4e611485565b610a578261152a565b610a618282611532565b5050565b6000610a6f6115ef565b50600080516020612f0883398151915290565b610a8a611366565b610a946000611638565b565b600254604051630c6123bd60e41b81526004810183905260009183916001600160a01b039091169063c6123bd090602401602060405180830381865afa158015610ae4573d6000803e3d6000fd5b505050506040513d601f19601f82011682018060405250810190610b089190612b53565b610b245760405162461bcd60e51b81526004016108d490612b70565b60008381526001602052604090205491505b50919050565b610a613383836116a9565b6060610b5282611751565b15610b9f5760405162461bcd60e51b815260206004820152601760248201527f546f6b656e20494420646f6573206e6f7420657869737400000000000000000060448201526064016108d4565b6007610baa836117c9565b604051602001610bbb929190612ba7565b6040516020818303038152906040529050919050565b610bd9611366565b600254604051630c6123bd60e41b81526004810184905283916001600160a01b03169063c6123bd090602401602060405180830381865afa158015610c22573d6000803e3d6000fd5b505050506040513d601f19601f82011682018060405250810190610c469190612b53565b610c625760405162461bcd60e51b81526004016108d490612b70565b600083815260016020526040902054821115610cac5760008381526001602052604090819020549051638059c74760e01b81526004810191909152602481018390526044016108d4565b60008381526001602052604081208054849290610cca908490612c50565b909155505060405182815283907f3acfc90bc712f850a17e0c2eba0dfc3884c55e7f88d2cc44c097cbd3b1de778f906020015b60405180910390a2505050565b600254604051630c6123bd60e41b81526004810183905260009183916001600160a01b039091169063c6123bd090602401602060405180830381865afa158015610d58573d6000803e3d6000fd5b505050506040513d601f19601f82011682018060405250810190610d7c9190612b53565b610d985760405162461bcd60e51b81526004016108d490612b70565b505060009081526020819052604090205490565b6001600160a01b0391821660009081527f88be536d5240c274a3b1d3a1be54482fd9caa294f08c62a7cde569f49a3c45016020908152604080832093909416825291909152205460ff1690565b610e01611366565b6000610e0d8484610697565b905081811015610e5f5760405162461bcd60e51b815260206004820152601c60248201527f496e73756666696369656e742062616c616e636520746f206275726e0000000060448201526064016108d4565b610e6a84848461185b565b50505050565b610e78611366565b600380546001600160a01b0319166001600160a01b0383169081179091556040517f58adbfbb983e2fe8d75175ed2f667dbbe96d8f848c48dcb8db66627683f9d05590600090a250565b336001600160a01b0386168114801590610ee35750610ee18682610dac565b155b15610f145760405163711bec9160e11b81526001600160a01b038083166004830152871660248201526044016108d4565b61095c86868686866118c3565b610f29611366565b6001600160a01b038116610f5357604051631e4fbdf760e01b8152600060048201526024016108d4565b610f5c81611638565b50565b7ff0c57e16840df040f15088dc2f81fe391c3923bec73e23a9662efc9c229c6a008054600160401b810460ff1615906001600160401b0316600081158015610fa45750825b90506000826001600160401b03166001148015610fc05750303b155b905081158015610fce575080155b15610fec5760405163f92ee8a960e01b815260040160405180910390fd5b845467ffffffffffffffff19166001178555831561101657845460ff60401b1916600160401b1785555b61101f33611948565b600280546001600160a01b0319166001600160a01b03891617905561104386611959565b61105360c86101f46103e8610964565b600761105f8782612caa565b5083156110a657845460ff60401b19168555604051600181527fc7f505b2f371ae2175ee4913f4499e1f2633a7b5936321eed1cdaeb6115181d29060200160405180910390a15b50505050505050565b6110b7611366565b600254604051630c6123bd60e41b81526004810184905283916001600160a01b03169063c6123bd090602401602060405180830381865afa158015611100573d6000803e3d6000fd5b505050506040513d601f19601f820116820180604052508101906111249190612b53565b6111405760405162461bcd60e51b81526004016108d490612b70565b6000838152600160205260408120805484929061115e908490612d68565b9091555061116d90508361196a565b60008381526001602052604081205461118890600a90612d91565b61119390600a612da5565b905080156113265760008481526001602052604081208054600a92906111ba908490612dbc565b909155505060025460405163130da8a560e11b8152600481018690526000916001600160a01b03169063261b514a90602401602060405180830381865afa158015611209573d6000803e3d6000fd5b505050506040513d601f19601f8201168201806040525081019061122d9190612dd0565b60035460405163a9059cbb60e01b81526001600160a01b0380841660048301526024820186905292935091169063a9059cbb906044016020604051808303816000875af1158015611282573d6000803e3d6000fd5b505050506040513d601f19601f820116820180604052508101906112a69190612b53565b6112ea5760405162461bcd60e51b8152602060048201526015602482015274151bdad95b881d1c985b9cd9995c8819985a5b1959605a1b60448201526064016108d4565b847f3ecf3fd11fc7c78dab980e73d7952ad9c2fd79461f9cf298f456274ea17291738360405161131c91815260200190565b60405180910390a2505b837ff54b9ab9e866899cf7486a617bf4f1e402300b8c2b16214e8f20f0d8ba03ca118460405161135891815260200190565b60405180910390a250505050565b336113987f9016d09d72d40fdae2fd8ceac6b6234c7706214fd39c1cd1e609a0528c199300546001600160a01b031690565b6001600160a01b031614610a945760405163118cdaa760e01b81523360048201526024016108d4565b6001600160a01b0384166113eb57604051632bfa23e760e11b8152600060048201526024016108d4565b6040805160018082526020820186905281830190815260608201859052608082019092529061095c600087848487611ab7565b6001600160a01b03841661144857604051632bfa23e760e11b8152600060048201526024016108d4565b6001600160a01b03851661147157604051626a0d4560e21b8152600060048201526024016108d4565b61147e8585858585611ab7565b5050505050565b306001600160a01b037f000000000000000000000000000000000000000000000000000000000000000016148061150c57507f00000000000000000000000000000000000000000000000000000000000000006001600160a01b0316611500600080516020612f08833981519152546001600160a01b031690565b6001600160a01b031614155b15610a945760405163703e46dd60e11b815260040160405180910390fd5b610f5c611366565b816001600160a01b03166352d1902d6040518163ffffffff1660e01b8152600401602060405180830381865afa92505050801561158c575060408051601f3d908101601f1916820190925261158991810190612ded565b60015b6115b457604051634c9c8ce360e01b81526001600160a01b03831660048201526024016108d4565b600080516020612f0883398151915281146115e557604051632a87526960e21b8152600481018290526024016108d4565b6108f88383611b0a565b306001600160a01b037f00000000000000000000000000000000000000000000000000000000000000001614610a945760405163703e46dd60e11b815260040160405180910390fd5b7f9016d09d72d40fdae2fd8ceac6b6234c7706214fd39c1cd1e609a0528c19930080546001600160a01b031981166001600160a01b03848116918217845560405192169182907f8be0079c531659141344cd1fd0a4f28419497f9722a3daafe3b4186f6b6457e090600090a3505050565b600080516020612f288339815191526001600160a01b0383166116e15760405162ced3e160e81b8152600060048201526024016108d4565b6001600160a01b038481166000818152600184016020908152604080832094881680845294825291829020805460ff191687151590811790915591519182527f17307eab39ab6107e8899845ad3d59bd9653f200f220920489ca2b5937696c31910160405180910390a350505050565b60025460405163423411b160e01b815233600482015260009183916001600160a01b039091169063423411b190602401602060405180830381865afa15801561179e573d6000803e3d6000fd5b505050506040513d601f19601f820116820180604052508101906117c29190612ded565b1492915050565b606060006117d683611b60565b60010190506000816001600160401b038111156117f5576117f561260f565b6040519080825280601f01601f19166020018201604052801561181f576020820181803683370190505b5090508181016020015b600019016f181899199a1a9b1b9c1cb0b131b232b360811b600a86061a8153600a850494508461182957509392505050565b6001600160a01b03831661188457604051626a0d4560e21b8152600060048201526024016108d4565b604080516001808252602082018590528183019081526060820184905260a0820190925260006080820181815291929161147e91879185908590611ab7565b6001600160a01b0384166118ed57604051632bfa23e760e11b8152600060048201526024016108d4565b6001600160a01b03851661191657604051626a0d4560e21b8152600060048201526024016108d4565b604080516001808252602082018690528183019081526060820185905260808201909252906110a68787848487611ab7565b611950611c38565b610f5c81611c81565b611961611c38565b610f5c81611c89565b60008181526001602090815260408083205491839052822080549083905560065491929091831061199d575060036119bb565b60055483106119ae575060026119bb565b60045483106119bb575060015b60025460405163130da8a560e11b8152600481018690526000916001600160a01b03169063261b514a90602401602060405180830381865afa158015611a05573d6000803e3d6000fd5b505050506040513d601f19601f82011682018060405250810190611a299190612dd0565b9050828214611a6357611a3d858285611c9a565b611a5981836001604051806020016040528060008152506113c1565b611a638583611ccd565b847f0cf50bca40d79209e58ddde2b955769f5c16088c126332b9f9a9e0bc9bdea3726001600088815260200190815260200160002054604051611aa891815260200190565b60405180910390a25050505050565b611ac385858585611e06565b6001600160a01b0384161561147e5782513390600103611afc5760208481015190840151611af583898985858961202b565b505061095c565b61095c81878787878761214f565b611b1382612238565b6040516001600160a01b038316907fbc7cd75a20ee27fd9adebab32041f755214dbc6bffa90cc0225b39da2e5c2d3b90600090a2805115611b58576108f8828261229d565b610a61612313565b60008072184f03e93ff9f4daa797ed6e38ed64bf6a1f0160401b8310611b9f5772184f03e93ff9f4daa797ed6e38ed64bf6a1f0160401b830492506040015b6d04ee2d6d415b85acef81000000008310611bcb576d04ee2d6d415b85acef8100000000830492506020015b662386f26fc100008310611be957662386f26fc10000830492506010015b6305f5e1008310611c01576305f5e100830492506008015b6127108310611c1557612710830492506004015b60648310611c27576064830492506002015b600a83106106c85760010192915050565b7ff0c57e16840df040f15088dc2f81fe391c3923bec73e23a9662efc9c229c6a0054600160401b900460ff16610a9457604051631afcd79f60e31b815260040160405180910390fd5b610f29611c38565b611c91611c38565b610f5c81612332565b8015801590611cb257506000611cb08383610697565b115b156108f857611cc38282600161185b565b6108f8838261236c565b60025460405163130da8a560e11b8152600481018490526000916001600160a01b03169063261b514a90602401602060405180830381865afa158015611d17573d6000803e3d6000fd5b505050506040513d601f19601f82011682018060405250810190611d3b9190612dd0565b905060038203611d80576040516001600160a01b038216815283907f86fd7d1f5d70bd0ede2920e14777133ae135b452371f1b397eece7b74efb4d5190602001610cfd565b60028203611dc3576040516001600160a01b038216815283907f43fc4850ce1c63dc0d1cce5b24f257f4902f7db319518a4a65eeff179e6e778a90602001610cfd565b600182036108f8576040516001600160a01b038216815283907fd033dc0fc57b48ca3fa12d5d7abd5f9cdd9c2771503743f05c58af7fb573029090602001610cfd565b80518251600080516020612f288339815191529114611e455782518251604051635b05999160e01b8152600481019290925260248201526044016108d4565b3360005b8451811015611f4b576020818102868101820151908601909101516001600160a01b03891615611efc576000828152602086815260408083206001600160a01b038d16845290915290205481811015611ed5576040516303dee4c560e01b81526001600160a01b038b1660048201526024810182905260448101839052606481018490526084016108d4565b6000838152602087815260408083206001600160a01b038e16845290915290209082900390555b6001600160a01b03881615611f41576000828152602086815260408083206001600160a01b038c16845290915281208054839290611f3b908490612d68565b90915550505b5050600101611e49565b508351600103611fcc5760208401516000906020850151909150866001600160a01b0316886001600160a01b0316846001600160a01b03167fc3d58168c5ae7397731d063d5bbf3d657854427343f4c083240f7aacaa2d0f628585604051611fbd929190918252602082015260400190565b60405180910390a4505061095c565b846001600160a01b0316866001600160a01b0316826001600160a01b03167f4a39dc06d4c0dbc64b70af90fd698a233a518aa5d07e595d983b8c0526c8f7fb878760405161201b929190612e06565b60405180910390a4505050505050565b6001600160a01b0384163b1561095c5760405163f23a6e6160e01b81526001600160a01b0385169063f23a6e619061206f9089908990889088908890600401612e2b565b6020604051808303816000875af19250505080156120aa575060408051601f3d908101601f191682019092526120a791810190612e70565b60015b612113573d8080156120d8576040519150601f19603f3d011682016040523d82523d6000602084013e6120dd565b606091505b50805160000361210b57604051632bfa23e760e11b81526001600160a01b03861660048201526024016108d4565b805181602001fd5b6001600160e01b0319811663f23a6e6160e01b146110a657604051632bfa23e760e11b81526001600160a01b03861660048201526024016108d4565b6001600160a01b0384163b1561095c5760405163bc197c8160e01b81526001600160a01b0385169063bc197c81906121939089908990889088908890600401612e8d565b6020604051808303816000875af19250505080156121ce575060408051601f3d908101601f191682019092526121cb91810190612e70565b60015b6121fc573d8080156120d8576040519150601f19603f3d011682016040523d82523d6000602084013e6120dd565b6001600160e01b0319811663bc197c8160e01b146110a657604051632bfa23e760e11b81526001600160a01b03861660048201526024016108d4565b806001600160a01b03163b60000361226e57604051634c9c8ce360e01b81526001600160a01b03821660048201526024016108d4565b600080516020612f0883398151915280546001600160a01b0319166001600160a01b0392909216919091179055565b6060600080846001600160a01b0316846040516122ba9190612eeb565b600060405180830381855af49150503d80600081146122f5576040519150601f19603f3d011682016040523d82523d6000602084013e6122fa565b606091505b509150915061230a858383612462565b95945050505050565b3415610a945760405163b398979f60e01b815260040160405180910390fd5b600080516020612f288339815191527f88be536d5240c274a3b1d3a1be54482fd9caa294f08c62a7cde569f49a3c45026108f88382612caa565b60025460405163130da8a560e11b8152600481018490526000916001600160a01b03169063261b514a90602401602060405180830381865afa1580156123b6573d6000803e3d6000fd5b505050506040513d601f19601f820116820180604052508101906123da9190612dd0565b90506002820361241f576040516001600160a01b038216815283907fddce914db84a6bdbb58a5b60c983261219e5030e7998b25cd0b2330cc105b4c590602001610cfd565b600182036108f8576040516001600160a01b038216815283907fe5d0b65c1535a04adf3a83fd5a8fa8a36e3d022c2a1f6e845823910159439cbe90602001610cfd565b60608261247757612472826124c1565b6124ba565b815115801561248e57506001600160a01b0384163b155b156124b757604051639996b31560e01b81526001600160a01b03851660048201526024016108d4565b50805b9392505050565b8051156124d15780518082602001fd5b604051630a12f52160e11b815260040160405180910390fd5b6001600160a01b0381168114610f5c57600080fd5b6000806040838503121561251257600080fd5b823561251d816124ea565b946020939093013593505050565b6001600160e01b031981168114610f5c57600080fd5b60006020828403121561255357600080fd5b81356124ba8161252b565b60005b83811015612579578181015183820152602001612561565b50506000910152565b6000815180845261259a81602086016020860161255e565b601f01601f19169290920160200192915050565b6020815260006124ba6020830184612582565b6000602082840312156125d357600080fd5b5035919050565b6000806000606084860312156125ef57600080fd5b83356125fa816124ea565b95602085013595506040909401359392505050565b634e487b7160e01b600052604160045260246000fd5b604051601f8201601f191681016001600160401b038111828210171561264d5761264d61260f565b604052919050565b60006001600160401b0382111561266e5761266e61260f565b5060051b60200190565b600082601f83011261268957600080fd5b813561269c61269782612655565b612625565b8082825260208201915060208360051b8601019250858311156126be57600080fd5b602085015b838110156126db5780358352602092830192016126c3565b5095945050505050565b6000806001600160401b038411156126ff576126ff61260f565b50601f8301601f191660200161271481612625565b91505082815283838301111561272957600080fd5b828260208301376000602084830101529392505050565b600082601f83011261275157600080fd5b6124ba838335602085016126e5565b600080600080600060a0868803121561277857600080fd5b8535612783816124ea565b94506020860135612793816124ea565b935060408601356001600160401b038111156127ae57600080fd5b6127ba88828901612678565b93505060608601356001600160401b038111156127d657600080fd5b6127e288828901612678565b92505060808601356001600160401b038111156127fe57600080fd5b61280a88828901612740565b9150509295509295909350565b60008060006060848603121561282c57600080fd5b505081359360208301359350604090920135919050565b6000806040838503121561285657600080fd5b82356001600160401b0381111561286c57600080fd5b8301601f8101851361287d57600080fd5b803561288b61269782612655565b8082825260208201915060208360051b8501019250878311156128ad57600080fd5b6020840193505b828410156128d85783356128c7816124ea565b8252602093840193909101906128b4565b945050505060208301356001600160401b038111156128f657600080fd5b61290285828601612678565b9150509250929050565b600081518084526020840193506020830160005b8281101561293e578151865260209586019590910190600101612920565b5093949350505050565b6020815260006124ba602083018461290c565b6000806040838503121561296e57600080fd5b8235612979816124ea565b915060208301356001600160401b0381111561299457600080fd5b61290285828601612740565b8015158114610f5c57600080fd5b600080604083850312156129c157600080fd5b82356129cc816124ea565b915060208301356129dc816129a0565b809150509250929050565b600080604083850312156129fa57600080fd5b50508035926020909101359150565b60008060408385031215612a1c57600080fd5b8235612a27816124ea565b915060208301356129dc816124ea565b600060208284031215612a4957600080fd5b81356124ba816124ea565b600080600080600060a08688031215612a6c57600080fd5b8535612a77816124ea565b94506020860135612a87816124ea565b9350604086013592506060860135915060808601356001600160401b038111156127fe57600080fd5b60008060408385031215612ac357600080fd5b8235612ace816124ea565b915060208301356001600160401b03811115612ae957600080fd5b8301601f81018513612afa57600080fd5b612902858235602084016126e5565b600181811c90821680612b1d57607f821691505b602082108103610b3657634e487b7160e01b600052602260045260246000fd5b634e487b7160e01b600052603260045260246000fd5b600060208284031215612b6557600080fd5b81516124ba816129a0565b6020808252601c908201527f496e76616c6964436c69656e744944206f6e20506f696e74436f726500000000604082015260600190565b6000808454612bb581612b09565b600182168015612bcc5760018114612be157612c11565b60ff1983168652811515820286019350612c11565b87600052602060002060005b83811015612c0957815488820152600190910190602001612bed565b505081860193505b505050602f60f81b81528351612c2e81600184016020880161255e565b01600101949350505050565b634e487b7160e01b600052601160045260246000fd5b818103818111156106c8576106c8612c3a565b601f8211156108f857806000526020600020601f840160051c81016020851015612c8a5750805b601f840160051c820191505b8181101561147e5760008155600101612c96565b81516001600160401b03811115612cc357612cc361260f565b612cd781612cd18454612b09565b84612c63565b6020601f821160018114612d0b5760008315612cf35750848201515b600019600385901b1c1916600184901b17845561147e565b600084815260208120601f198516915b82811015612d3b5787850151825560209485019460019092019101612d1b565b5084821015612d595786840151600019600387901b60f8161c191681555b50505050600190811b01905550565b808201808211156106c8576106c8612c3a565b634e487b7160e01b600052601260045260246000fd5b600082612da057612da0612d7b565b500490565b80820281158282048414176106c8576106c8612c3a565b600082612dcb57612dcb612d7b565b500690565b600060208284031215612de257600080fd5b81516124ba816124ea565b600060208284031215612dff57600080fd5b5051919050565b604081526000612e19604083018561290c565b828103602084015261230a818561290c565b6001600160a01b03868116825285166020820152604081018490526060810183905260a060808201819052600090612e6590830184612582565b979650505050505050565b600060208284031215612e8257600080fd5b81516124ba8161252b565b6001600160a01b0386811682528516602082015260a060408201819052600090612eb99083018661290c565b8281036060840152612ecb818661290c565b90508281036080840152612edf8185612582565b98975050505050505050565b60008251612efd81846020870161255e565b919091019291505056fe360894a13ba1a3210667c828492db98dca3e2076cc3735a920a3ca505d382bbc88be536d5240c274a3b1d3a1be54482fd9caa294f08c62a7cde569f49a3c4500a2646970667358221220703184adae527251572bd90c9e7a1f1c682707cd3aa036fd32f17d3f08c846d364736f6c634300081b0033","linkReferences":{}},"methodIdentifiers":{"CUSTOMER_GOLD()":"a49fa23c","CUSTOMER_PREMIUM()":"bb7b1d8f","CUSTOMER_TITANIUM()":"de29d16b","UPGRADE_INTERFACE_VERSION()":"ad3cb1cc","addPoints(uint256,uint256)":"fe4651a0","balanceOf(address,uint256)":"00fdd58e","balanceOfBatch(address[],uint256[])":"4e1273f4","burnToken(address,uint256,uint256)":"ed8c5938","clientLevel(uint256)":"94d8b2ca","customerManagerInstance()":"d7548786","drexToken()":"b756e07b","getClientLevel(uint256)":"e921378d","getClientPoints(uint256)":"9a77667d","getVersion()":"0d8e6e2c","initialize(address,string)":"f399e22e","isApprovedForAll(address,address)":"e985e9c5","metadataURI()":"03ee438c","mint(address,uint256,uint256)":"156e29f6","owner()":"8da5cb5b","pointsForGold()":"5668f3f0","pointsForPremium()":"d6d95a8d","pointsForTitanium()":"13581688","proxiableUUID()":"52d1902d","removePoints(uint256,uint256)":"e0794800","renounceOwnership()":"715018a6","safeBatchTransferFrom(address,address,uint256[],uint256[],bytes)":"2eb2c2d6","safeTransferFrom(address,address,uint256,uint256,bytes)":"f242432a","setApprovalForAll(address,bool)":"a22cb465","setPointThresholds(uint256,uint256,uint256)":"2fdd863a","setPointsTokenAddress(address)":"ef04cba5","supportsInterface(bytes4)":"01ffc9a7","tokenURI(uint256)":"c87b56dd","transferOwnership(address)":"f2fde38b","upgradeToAndCall(address,bytes)":"4f1ef286","uri(uint256)":"0e89341c"},"id":1}