{"abi":[{"type":"function","name":"UPGRADE_INTERFACE_VERSION","inputs":[],"outputs":[{"name":"","type":"string","internalType":"string"}],"stateMutability":"view"},{"type":"function","name":"currentId","inputs":[],"outputs":[{"name":"","type":"uint256","internalType":"uint256"}],"stateMutability":"view"},{"type":"function","name":"getClientData","inputs":[{"name":"clientId","type":"uint256","internalType":"uint256"}],"outputs":[{"name":"","type":"tuple","internalType":"struct ICustomerManagementStorage.ClientData","components":[{"name":"clientId","type":"uint256","internalType":"uint256"},{"name":"name","type":"string","internalType":"string"},{"name":"age","type":"uint256","internalType":"uint256"},{"name":"WalletAddress","type":"address","internalType":"address"},{"name":"paymentStatus","type":"uint8","internalType":"enum ICustomerManagementStorage.PaymentStatus"},{"name":"addressLocal","type":"tuple","internalType":"struct ICustomerManagementStorage.AddressLocal","components":[{"name":"City","type":"string","internalType":"string"},{"name":"Street","type":"string","internalType":"string"},{"name":"PostalCode","type":"uint256","internalType":"uint256"},{"name":"HouseNumber","type":"uint256","internalType":"uint256"}]}]}],"stateMutability":"view"},{"type":"function","name":"getClientName","inputs":[{"name":"clientId","type":"uint256","internalType":"uint256"}],"outputs":[{"name":"","type":"string","internalType":"string"}],"stateMutability":"view"},{"type":"function","name":"getClientWalletAddress","inputs":[{"name":"clientId","type":"uint256","internalType":"uint256"}],"outputs":[{"name":"","type":"address","internalType":"address"}],"stateMutability":"view"},{"type":"function","name":"getClientsByAddress","inputs":[{"name":"clientAddress","type":"address","internalType":"address"}],"outputs":[{"name":"","type":"tuple","internalType":"struct ICustomerManagementStorage.ClientData","components":[{"name":"clientId","type":"uint256","internalType":"uint256"},{"name":"name","type":"string","internalType":"string"},{"name":"age","type":"uint256","internalType":"uint256"},{"name":"WalletAddress","type":"address","internalType":"address"},{"name":"paymentStatus","type":"uint8","internalType":"enum ICustomerManagementStorage.PaymentStatus"},{"name":"addressLocal","type":"tuple","internalType":"struct ICustomerManagementStorage.AddressLocal","components":[{"name":"City","type":"string","internalType":"string"},{"name":"Street","type":"string","internalType":"string"},{"name":"PostalCode","type":"uint256","internalType":"uint256"},{"name":"HouseNumber","type":"uint256","internalType":"uint256"}]}]}],"stateMutability":"view"},{"type":"function","name":"getClientsByAge","inputs":[{"name":"age","type":"uint256","internalType":"uint256"}],"outputs":[{"name":"","type":"tuple","internalType":"struct ICustomerManagementStorage.ClientData","components":[{"name":"clientId","type":"uint256","internalType":"uint256"},{"name":"name","type":"string","internalType":"string"},{"name":"age","type":"uint256","internalType":"uint256"},{"name":"WalletAddress","type":"address","internalType":"address"},{"name":"paymentStatus","type":"uint8","internalType":"enum ICustomerManagementStorage.PaymentStatus"},{"name":"addressLocal","type":"tuple","internalType":"struct ICustomerManagementStorage.AddressLocal","components":[{"name":"City","type":"string","internalType":"string"},{"name":"Street","type":"string","internalType":"string"},{"name":"PostalCode","type":"uint256","internalType":"uint256"},{"name":"HouseNumber","type":"uint256","internalType":"uint256"}]}]}],"stateMutability":"view"},{"type":"function","name":"getClientsByName","inputs":[{"name":"name","type":"string","internalType":"string"}],"outputs":[{"name":"","type":"tuple","internalType":"struct ICustomerManagementStorage.ClientData","components":[{"name":"clientId","type":"uint256","internalType":"uint256"},{"name":"name","type":"string","internalType":"string"},{"name":"age","type":"uint256","internalType":"uint256"},{"name":"WalletAddress","type":"address","internalType":"address"},{"name":"paymentStatus","type":"uint8","internalType":"enum ICustomerManagementStorage.PaymentStatus"},{"name":"addressLocal","type":"tuple","internalType":"struct ICustomerManagementStorage.AddressLocal","components":[{"name":"City","type":"string","internalType":"string"},{"name":"Street","type":"string","internalType":"string"},{"name":"PostalCode","type":"uint256","internalType":"uint256"},{"name":"HouseNumber","type":"uint256","internalType":"uint256"}]}]}],"stateMutability":"view"},{"type":"function","name":"getUserTokenID","inputs":[{"name":"userAddress","type":"address","internalType":"address"}],"outputs":[{"name":"","type":"uint256","internalType":"uint256"}],"stateMutability":"view"},{"type":"function","name":"getVersion","inputs":[],"outputs":[{"name":"","type":"string","internalType":"string"}],"stateMutability":"pure"},{"type":"function","name":"initialize","inputs":[],"outputs":[],"stateMutability":"nonpayable"},{"type":"function","name":"isClientExists","inputs":[{"name":"clientId","type":"uint256","internalType":"uint256"}],"outputs":[{"name":"","type":"bool","internalType":"bool"}],"stateMutability":"view"},{"type":"function","name":"owner","inputs":[],"outputs":[{"name":"","type":"address","internalType":"address"}],"stateMutability":"view"},{"type":"function","name":"proxiableUUID","inputs":[],"outputs":[{"name":"","type":"bytes32","internalType":"bytes32"}],"stateMutability":"view"},{"type":"function","name":"registerClient","inputs":[{"name":"newClient","type":"tuple","internalType":"struct ICustomerManagementStorage.ClientDataInput","components":[{"name":"name","type":"string","internalType":"string"},{"name":"age","type":"uint256","internalType":"uint256"},{"name":"WalletAddress","type":"address","internalType":"address"},{"name":"paymentStatus","type":"uint8","internalType":"enum ICustomerManagementStorage.PaymentStatus"},{"name":"addressLocal","type":"tuple","internalType":"struct ICustomerManagementStorage.AddressLocal","components":[{"name":"City","type":"string","internalType":"string"},{"name":"Street","type":"string","internalType":"string"},{"name":"PostalCode","type":"uint256","internalType":"uint256"},{"name":"HouseNumber","type":"uint256","internalType":"uint256"}]}]}],"outputs":[],"stateMutability":"nonpayable"},{"type":"function","name":"renounceOwnership","inputs":[],"outputs":[],"stateMutability":"nonpayable"},{"type":"function","name":"transferOwnership","inputs":[{"name":"newOwner","type":"address","internalType":"address"}],"outputs":[],"stateMutability":"nonpayable"},{"type":"function","name":"upgradeToAndCall","inputs":[{"name":"newImplementation","type":"address","internalType":"address"},{"name":"data","type":"bytes","internalType":"bytes"}],"outputs":[],"stateMutability":"payable"},{"type":"function","name":"userTokenIDs","inputs":[{"name":"","type":"address","internalType":"address"}],"outputs":[{"name":"","type":"uint256","internalType":"uint256"}],"stateMutability":"view"},{"type":"event","name":"ClientRegistered","inputs":[{"name":"clientId","type":"uint256","indexed":true,"internalType":"uint256"},{"name":"name","type":"string","indexed":false,"internalType":"string"},{"name":"age","type":"uint256","indexed":false,"internalType":"uint256"}],"anonymous":false},{"type":"event","name":"Initialized","inputs":[{"name":"version","type":"uint64","indexed":false,"internalType":"uint64"}],"anonymous":false},{"type":"event","name":"OwnershipTransferred","inputs":[{"name":"previousOwner","type":"address","indexed":true,"internalType":"address"},{"name":"newOwner","type":"address","indexed":true,"internalType":"address"}],"anonymous":false},{"type":"event","name":"Upgraded","inputs":[{"name":"implementation","type":"address","indexed":true,"internalType":"address"}],"anonymous":false},{"type":"error","name":"AddressEmptyCode","inputs":[{"name":"target","type":"address","internalType":"address"}]},{"type":"error","name":"ClientAlreadyExists","inputs":[{"name":"WalletAddress","type":"address","internalType":"address"}]},{"type":"error","name":"ClientExists","inputs":[{"name":"clientId","type":"uint256","internalType":"uint256"}]},{"type":"error","name":"ERC1967InvalidImplementation","inputs":[{"name":"implementation","type":"address","internalType":"address"}]},{"type":"error","name":"ERC1967NonPayable","inputs":[]},{"type":"error","name":"EmptyParameter","inputs":[{"name":"message","type":"string","internalType":"string"}]},{"type":"error","name":"FailedInnerCall","inputs":[]},{"type":"error","name":"InvalidClientID","inputs":[{"name":"clientId","type":"uint256","internalType":"uint256"}]},{"type":"error","name":"InvalidInitialization","inputs":[]},{"type":"error","name":"InvalidPaymentStatus","inputs":[{"name":"status","type":"uint8","internalType":"enum ICustomerManagementStorage.PaymentStatus"}]},{"type":"error","name":"NotInitializing","inputs":[]},{"type":"error","name":"OwnableInvalidOwner","inputs":[{"name":"owner","type":"address","internalType":"address"}]},{"type":"error","name":"OwnableUnauthorizedAccount","inputs":[{"name":"account","type":"address","internalType":"address"}]},{"type":"error","name":"UUPSUnauthorizedCallContext","inputs":[]},{"type":"error","name":"UUPSUnsupportedProxiableUUID","inputs":[{"name":"slot","type":"bytes32","internalType":"bytes32"}]}],"bytecode":{"object":"0x60a06040523060805234801561001457600080fd5b50608051611f0361003e60003960008181610c8401528181610cad0152610df30152611f036000f3fe6080604052600436106101145760003560e01c80638129fc1c116100a0578063d13a3f8011610064578063d13a3f8014610352578063e00dd16114610372578063e3807f7b14610388578063f2fde38b146103a8578063fbfeeffd146103c857600080fd5b80638129fc1c1461027f5780638da5cb5b14610294578063ad3cb1cc146102d1578063ba5662e814610302578063c6123bd01461032257600080fd5b8063423411b1116100e7578063423411b1146101dc5780634f1ef2861461022057806351f0fe341461023557806352d1902d14610255578063715018a61461026a57600080fd5b80630d8e6e2c146101195780631bbc9f4814610157578063261b514a1461017757806342324d7b146101af575b600080fd5b34801561012557600080fd5b506040805180820190915260038152620c4b8d60ea1b60208201525b60405161014e9190611951565b60405180910390f35b34801561016357600080fd5b50610141610172366004611964565b6103f5565b34801561018357600080fd5b50610197610192366004611964565b6104ca565b6040516001600160a01b03909116815260200161014e565b3480156101bb57600080fd5b506101cf6101ca366004611a09565b610516565b60405161014e9190611a92565b3480156101e857600080fd5b506102126101f7366004611b65565b6001600160a01b031660009081526006602052604090205490565b60405190815260200161014e565b61023361022e366004611b80565b6107c0565b005b34801561024157600080fd5b506101cf610250366004611b65565b6107df565b34801561026157600080fd5b5061021261080f565b34801561027657600080fd5b5061023361082c565b34801561028b57600080fd5b50610233610840565b3480156102a057600080fd5b507f9016d09d72d40fdae2fd8ceac6b6234c7706214fd39c1cd1e609a0528c199300546001600160a01b0316610197565b3480156102dd57600080fd5b50610141604051806040016040528060058152602001640352e302e360dc1b81525081565b34801561030e57600080fd5b5061023361031d366004611be2565b610958565b34801561032e57600080fd5b5061034261033d366004611964565b610964565b604051901515815260200161014e565b34801561035e57600080fd5b506101cf61036d366004611964565b61098d565b34801561037e57600080fd5b5061021260005481565b34801561039457600080fd5b506101cf6103a3366004611964565b6109b3565b3480156103b457600080fd5b506102336103c3366004611b65565b610c3e565b3480156103d457600080fd5b506102126103e3366004611b65565b60066020526000908152604090205481565b60608161040181610964565b6104265760405163a648038b60e01b8152600481018290526024015b60405180910390fd5b600083815260016020819052604090912001805461044390611c1d565b80601f016020809104026020016040519081016040528092919081815260200182805461046f90611c1d565b80156104bc5780601f10610491576101008083540402835291602001916104bc565b820191906000526020600020905b81548152906001019060200180831161049f57829003601f168201915b505050505091505b50919050565b6000816104d681610964565b6104f65760405163a648038b60e01b81526004810182905260240161041d565b50506000908152600160205260409020600301546001600160a01b031690565b61051e611889565b60006002836040516105309190611c51565b908152602001604051809103902060008154811061055057610550611c6d565b906000526020600020015490506000600160008381526020019081526020016000206040518060c00160405290816000820154815260200160018201805461059790611c1d565b80601f01602080910402602001604051908101604052809291908181526020018280546105c390611c1d565b80156106105780601f106105e557610100808354040283529160200191610610565b820191906000526020600020905b8154815290600101906020018083116105f357829003601f168201915b50505091835250506002820154602082015260038201546001600160a01b0381166040830152606090910190600160a01b900460ff16600181111561065757610657611a5a565b600181111561066857610668611a5a565b81526020016004820160405180608001604052908160008201805461068c90611c1d565b80601f01602080910402602001604051908101604052809291908181526020018280546106b890611c1d565b80156107055780601f106106da57610100808354040283529160200191610705565b820191906000526020600020905b8154815290600101906020018083116106e857829003601f168201915b5050505050815260200160018201805461071e90611c1d565b80601f016020809104026020016040519081016040528092919081815260200182805461074a90611c1d565b80156107975780601f1061076c57610100808354040283529160200191610797565b820191906000526020600020905b81548152906001019060200180831161077a57829003601f168201915b505050918352505060028201546020820152600390910154604090910152905250949350505050565b6107c8610c79565b6107d182610d1e565b6107db8282610d26565b5050565b6107e7611889565b6001600160a01b03821660009081526003602052604081208054829061055057610550611c6d565b6000610819610de8565b50600080516020611eae83398151915290565b610834610e31565b61083e6000610e8c565b565b7ff0c57e16840df040f15088dc2f81fe391c3923bec73e23a9662efc9c229c6a008054600160401b810460ff16159067ffffffffffffffff166000811580156108865750825b905060008267ffffffffffffffff1660011480156108a35750303b155b9050811580156108b1575080155b156108cf5760405163f92ee8a960e01b815260040160405180910390fd5b845467ffffffffffffffff1916600117855583156108f957845460ff60401b1916600160401b1785555b61090260008055565b61090b33610efd565b831561095157845460ff60401b19168555604051600181527fc7f505b2f371ae2175ee4913f4499e1f2633a7b5936321eed1cdaeb6115181d29060200160405180910390a15b5050505050565b61096181610f0e565b50565b6000818152600160208190526040822001805482919061098390611c1d565b9050119050919050565b610995611889565b60008281526004602052604081208054829061055057610550611c6d565b6109bb611889565b816109c581610964565b6109e55760405163a648038b60e01b81526004810182905260240161041d565b600083815260016020818152604092839020835160c0810190945280548452918201805491840191610a1690611c1d565b80601f0160208091040260200160405190810160405280929190818152602001828054610a4290611c1d565b8015610a8f5780601f10610a6457610100808354040283529160200191610a8f565b820191906000526020600020905b815481529060010190602001808311610a7257829003601f168201915b50505091835250506002820154602082015260038201546001600160a01b0381166040830152606090910190600160a01b900460ff166001811115610ad657610ad6611a5a565b6001811115610ae757610ae7611a5a565b815260200160048201604051806080016040529081600082018054610b0b90611c1d565b80601f0160208091040260200160405190810160405280929190818152602001828054610b3790611c1d565b8015610b845780601f10610b5957610100808354040283529160200191610b84565b820191906000526020600020905b815481529060010190602001808311610b6757829003601f168201915b50505050508152602001600182018054610b9d90611c1d565b80601f0160208091040260200160405190810160405280929190818152602001828054610bc990611c1d565b8015610c165780601f10610beb57610100808354040283529160200191610c16565b820191906000526020600020905b815481529060010190602001808311610bf957829003601f168201915b5050509183525050600282015460208201526003909101546040909101529052509392505050565b610c46610e31565b6001600160a01b038116610c7057604051631e4fbdf760e01b81526000600482015260240161041d565b61096181610e8c565b306001600160a01b037f0000000000000000000000000000000000000000000000000000000000000000161480610d0057507f00000000000000000000000000000000000000000000000000000000000000006001600160a01b0316610cf4600080516020611eae833981519152546001600160a01b031690565b6001600160a01b031614155b1561083e5760405163703e46dd60e11b815260040160405180910390fd5b610961610e31565b816001600160a01b03166352d1902d6040518163ffffffff1660e01b8152600401602060405180830381865afa925050508015610d80575060408051601f3d908101601f19168201909252610d7d91810190611c83565b60015b610da857604051634c9c8ce360e01b81526001600160a01b038316600482015260240161041d565b600080516020611eae8339815191528114610dd957604051632a87526960e21b81526004810182905260240161041d565b610de3838361131e565b505050565b306001600160a01b037f0000000000000000000000000000000000000000000000000000000000000000161461083e5760405163703e46dd60e11b815260040160405180910390fd5b33610e637f9016d09d72d40fdae2fd8ceac6b6234c7706214fd39c1cd1e609a0528c199300546001600160a01b031690565b6001600160a01b03161461083e5760405163118cdaa760e01b815233600482015260240161041d565b7f9016d09d72d40fdae2fd8ceac6b6234c7706214fd39c1cd1e609a0528c19930080546001600160a01b031981166001600160a01b03848116918217845560405192169182907f8be0079c531659141344cd1fd0a4f28419497f9722a3daafe3b4186f6b6457e090600090a3505050565b610f05611374565b610961816113bd565b610f26610f216080830160608401611c9c565b6113c5565b610f2f81611419565b610f47610f426060830160408401611b65565b611541565b6000610f51611586565b90508060066000610f686060860160408701611b65565b6001600160a01b03166001600160a01b031681526020019081526020016000208190555060006040518060800160405280848060800190610fa99190611cbd565b610fb39080611cd3565b8080601f016020809104026020016040519081016040528093929190818152602001838380828437600092019190915250505090825250602001610ffa6080860186611cbd565b611008906020810190611cd3565b8080601f01602080910402602001604051908101604052809392919081815260200183838082843760009201919091525050509082525060200161104f6080860186611cbd565b6040013581526020016110656080860186611cbd565b6060013590526040805160c081019091528381529091506000906020810161108d8680611cd3565b8080601f016020809104026020016040519081016040528093929190818152602001838380828437600092019190915250505090825250602086810135908201526040908101906110e49060608801908801611b65565b6001600160a01b031681526020016111026080870160608801611c9c565b600181111561111357611113611a5a565b8152602090810184905260008581526001808352604090912083518155918301519293508392908201906111479082611d6f565b506040820151600282015560608201516003820180546001600160a01b039092166001600160a01b03198316811782556080850151926001600160a81b03191617600160a01b83600181111561119f5761119f611a5a565b021790555060a08201518051600483019081906111bc9082611d6f565b50602082015160018201906111d19082611d6f565b50604082015181600201556060820151816003015550509050506001600560008660400160208101906112049190611b65565b6001600160a01b031681526020810191909152604001600020805460ff191691151591909117905560026112388580611cd3565b604051611246929190611e2f565b908152604080516020928190038301902080546001810182556000918252928120909201859055600391906112819060608801908801611b65565b6001600160a01b031681526020808201929092526040908101600090812080546001818101835591835284832001879055878401358252600484529181208054928301815581529190912001839055827fc4241fa8b2b4f002c6b10f7f933e9484aeec52065a1a639c9699964a42c242406112fc8680611cd3565b876020013560405161131093929190611e3f565b60405180910390a250505050565b611327826115a0565b6040516001600160a01b038316907fbc7cd75a20ee27fd9adebab32041f755214dbc6bffa90cc0225b39da2e5c2d3b90600090a280511561136c57610de38282611605565b6107db61167d565b7ff0c57e16840df040f15088dc2f81fe391c3923bec73e23a9662efc9c229c6a0054600160401b900460ff1661083e57604051631afcd79f60e31b815260040160405180910390fd5b610c46611374565b60008160018111156113d9576113d9611a5a565b141580156113f9575060018160018111156113f6576113f6611a5a565b14155b1561096157806040516367f4cb9560e01b815260040161041d9190611e78565b6114238180611cd3565b9050600003611475576040516346cf674760e11b815260206004820152601760248201527f49742063616e6e6f7420626520656d707479206e616d65000000000000000000604482015260640161041d565b80602001356000036114c3576040516346cf674760e11b815260206004820152601660248201527549742063616e6e6f7420626520656d7074792061676560501b604482015260640161041d565b60006114d56060830160408401611b65565b6001600160a01b03160361152c576040516346cf674760e11b815260206004820181905260248201527f49742063616e6e6f7420626520656d7074792057616c6c657441646472657373604482015260640161041d565b61096161153c6080830183611cbd565b61169c565b6001600160a01b03811660009081526005602052604090205460ff161561096157604051634973bdaf60e01b81526001600160a01b038216600482015260240161041d565b6000806000815461159690611e86565b9182905550919050565b806001600160a01b03163b6000036115d657604051634c9c8ce360e01b81526001600160a01b038216600482015260240161041d565b600080516020611eae83398151915280546001600160a01b0319166001600160a01b0392909216919091179055565b6060600080846001600160a01b0316846040516116229190611c51565b600060405180830381855af49150503d806000811461165d576040519150601f19603f3d011682016040523d82523d6000602084013e611662565b606091505b5091509150611672858383611801565b925050505b92915050565b341561083e5760405163b398979f60e01b815260040160405180910390fd5b6116a68180611cd3565b90506000036116f8576040516346cf674760e11b815260206004820152601760248201527f49742063616e6e6f7420626520656d7074792043697479000000000000000000604482015260640161041d565b6117056020820182611cd3565b9050600003611757576040516346cf674760e11b815260206004820152601960248201527f49742063616e6e6f7420626520656d7074792053747265657400000000000000604482015260640161041d565b80604001356000036117ac576040516346cf674760e11b815260206004820152601d60248201527f49742063616e6e6f7420626520656d70747920506f7374616c436f6465000000604482015260640161041d565b8060600135600003610961576040516346cf674760e11b815260206004820152601e60248201527f49742063616e6e6f7420626520656d70747920486f7573654e756d6265720000604482015260640161041d565b6060826118165761181182611860565b611859565b815115801561182d57506001600160a01b0384163b155b1561185657604051639996b31560e01b81526001600160a01b038516600482015260240161041d565b50805b9392505050565b8051156118705780518082602001fd5b604051630a12f52160e11b815260040160405180910390fd5b6040518060c0016040528060008152602001606081526020016000815260200160006001600160a01b03168152602001600060018111156118cc576118cc611a5a565b81526020016118fc6040518060800160405280606081526020016060815260200160008152602001600081525090565b905290565b60005b8381101561191c578181015183820152602001611904565b50506000910152565b6000815180845261193d816020860160208601611901565b601f01601f19169290920160200192915050565b6020815260006118596020830184611925565b60006020828403121561197657600080fd5b5035919050565b634e487b7160e01b600052604160045260246000fd5b600067ffffffffffffffff808411156119ae576119ae61197d565b604051601f8501601f19908116603f011681019082821181831017156119d6576119d661197d565b816040528093508581528686860111156119ef57600080fd5b858560208301376000602087830101525050509392505050565b600060208284031215611a1b57600080fd5b813567ffffffffffffffff811115611a3257600080fd5b8201601f81018413611a4357600080fd5b611a5284823560208401611993565b949350505050565b634e487b7160e01b600052602160045260246000fd5b60028110611a8e57634e487b7160e01b600052602160045260246000fd5b9052565b60208152815160208201526000602083015160c06040840152611ab860e0840182611925565b90506040840151606084015260018060a01b0360608501511660808401526080840151611ae860a0850182611a70565b5060a0840151601f198483030160c0850152805160808352611b0d6080840182611925565b905060208201518382036020850152611b268282611925565b915050604082015160408401526060820151606084015280935050505092915050565b80356001600160a01b0381168114611b6057600080fd5b919050565b600060208284031215611b7757600080fd5b61185982611b49565b60008060408385031215611b9357600080fd5b611b9c83611b49565b9150602083013567ffffffffffffffff811115611bb857600080fd5b8301601f81018513611bc957600080fd5b611bd885823560208401611993565b9150509250929050565b600060208284031215611bf457600080fd5b813567ffffffffffffffff811115611c0b57600080fd5b820160a0818503121561185957600080fd5b600181811c90821680611c3157607f821691505b6020821081036104c457634e487b7160e01b600052602260045260246000fd5b60008251611c63818460208701611901565b9190910192915050565b634e487b7160e01b600052603260045260246000fd5b600060208284031215611c9557600080fd5b5051919050565b600060208284031215611cae57600080fd5b81356002811061185957600080fd5b60008235607e19833603018112611c6357600080fd5b6000808335601e19843603018112611cea57600080fd5b83018035915067ffffffffffffffff821115611d0557600080fd5b602001915036819003821315611d1a57600080fd5b9250929050565b601f821115610de357600081815260208120601f850160051c81016020861015611d485750805b601f850160051c820191505b81811015611d6757828155600101611d54565b505050505050565b815167ffffffffffffffff811115611d8957611d8961197d565b611d9d81611d978454611c1d565b84611d21565b602080601f831160018114611dd25760008415611dba5750858301515b600019600386901b1c1916600185901b178555611d67565b600085815260208120601f198616915b82811015611e0157888601518255948401946001909101908401611de2565b5085821015611e1f5787850151600019600388901b60f8161c191681555b5050505050600190811b01905550565b8183823760009101908152919050565b604081528260408201528284606083013760006060848301015260006060601f19601f8601168301019050826020830152949350505050565b602081016116778284611a70565b600060018201611ea657634e487b7160e01b600052601160045260246000fd5b506001019056fe360894a13ba1a3210667c828492db98dca3e2076cc3735a920a3ca505d382bbca264697066735822122094fbfeec8c4293a06047f5fbf54332f3680f8b77bcddcc327f01142bb38b1fca64736f6c63430008140033","linkReferences":{}},"methodIdentifiers":{"UPGRADE_INTERFACE_VERSION()":"ad3cb1cc","currentId()":"e00dd161","getClientData(uint256)":"e3807f7b","getClientName(uint256)":"1bbc9f48","getClientWalletAddress(uint256)":"261b514a","getClientsByAddress(address)":"51f0fe34","getClientsByAge(uint256)":"d13a3f80","getClientsByName(string)":"42324d7b","getUserTokenID(address)":"423411b1","getVersion()":"0d8e6e2c","initialize()":"8129fc1c","isClientExists(uint256)":"c6123bd0","owner()":"8da5cb5b","proxiableUUID()":"52d1902d","registerClient((string,uint256,address,uint8,(string,string,uint256,uint256)))":"ba5662e8","renounceOwnership()":"715018a6","transferOwnership(address)":"f2fde38b","upgradeToAndCall(address,bytes)":"4f1ef286","userTokenIDs(address)":"fbfeeffd"},"id":0}