{"abi":[{"type":"function","name":"CUSTOMER_GOLD","inputs":[],"outputs":[{"name":"","type":"uint256","internalType":"uint256"}],"stateMutability":"view"},{"type":"function","name":"CUSTOMER_PREMIUM","inputs":[],"outputs":[{"name":"","type":"uint256","internalType":"uint256"}],"stateMutability":"view"},{"type":"function","name":"CUSTOMER_TITANIUM","inputs":[],"outputs":[{"name":"","type":"uint256","internalType":"uint256"}],"stateMutability":"view"},{"type":"function","name":"UPGRADE_INTERFACE_VERSION","inputs":[],"outputs":[{"name":"","type":"string","internalType":"string"}],"stateMutability":"view"},{"type":"function","name":"addPoints","inputs":[{"name":"clientId","type":"uint256","internalType":"uint256"},{"name":"points","type":"uint256","internalType":"uint256"}],"outputs":[],"stateMutability":"nonpayable"},{"type":"function","name":"balanceOf","inputs":[{"name":"account","type":"address","internalType":"address"},{"name":"id","type":"uint256","internalType":"uint256"}],"outputs":[{"name":"","type":"uint256","internalType":"uint256"}],"stateMutability":"view"},{"type":"function","name":"balanceOfBatch","inputs":[{"name":"accounts","type":"address[]","internalType":"address[]"},{"name":"ids","type":"uint256[]","internalType":"uint256[]"}],"outputs":[{"name":"","type":"uint256[]","internalType":"uint256[]"}],"stateMutability":"view"},{"type":"function","name":"burnToken","inputs":[{"name":"account","type":"address","internalType":"address"},{"name":"id","type":"uint256","internalType":"uint256"},{"name":"amount","type":"uint256","internalType":"uint256"}],"outputs":[],"stateMutability":"nonpayable"},{"type":"function","name":"clientLevel","inputs":[{"name":"","type":"uint256","internalType":"uint256"}],"outputs":[{"name":"","type":"uint256","internalType":"uint256"}],"stateMutability":"view"},{"type":"function","name":"customerManagerInstance","inputs":[],"outputs":[{"name":"","type":"address","internalType":"contract CustomerManagementCore"}],"stateMutability":"view"},{"type":"function","name":"drexToken","inputs":[],"outputs":[{"name":"","type":"address","internalType":"contract IERC20"}],"stateMutability":"view"},{"type":"function","name":"getClientLevel","inputs":[{"name":"clientId","type":"uint256","internalType":"uint256"}],"outputs":[{"name":"","type":"uint256","internalType":"uint256"}],"stateMutability":"view"},{"type":"function","name":"getClientPoints","inputs":[{"name":"clientId","type":"uint256","internalType":"uint256"}],"outputs":[{"name":"","type":"uint256","internalType":"uint256"}],"stateMutability":"view"},{"type":"function","name":"getVersion","inputs":[],"outputs":[{"name":"","type":"string","internalType":"string"}],"stateMutability":"pure"},{"type":"function","name":"initialize","inputs":[{"name":"_customerManagerInstanceAddress","type":"address","internalType":"address"},{"name":"uri","type":"string","internalType":"string"}],"outputs":[],"stateMutability":"nonpayable"},{"type":"function","name":"isApprovedForAll","inputs":[{"name":"account","type":"address","internalType":"address"},{"name":"operator","type":"address","internalType":"address"}],"outputs":[{"name":"","type":"bool","internalType":"bool"}],"stateMutability":"view"},{"type":"function","name":"metadataURI","inputs":[],"outputs":[{"name":"","type":"string","internalType":"string"}],"stateMutability":"view"},{"type":"function","name":"mint","inputs":[{"name":"account","type":"address","internalType":"address"},{"name":"nftId","type":"uint256","internalType":"uint256"},{"name":"amount","type":"uint256","internalType":"uint256"}],"outputs":[],"stateMutability":"nonpayable"},{"type":"function","name":"multiplerPointsThreshold","inputs":[],"outputs":[{"name":"","type":"uint256","internalType":"uint256"}],"stateMutability":"view"},{"type":"function","name":"owner","inputs":[],"outputs":[{"name":"","type":"address","internalType":"address"}],"stateMutability":"view"},{"type":"function","name":"pointsForGold","inputs":[],"outputs":[{"name":"","type":"uint256","internalType":"uint256"}],"stateMutability":"view"},{"type":"function","name":"pointsForPremium","inputs":[],"outputs":[{"name":"","type":"uint256","internalType":"uint256"}],"stateMutability":"view"},{"type":"function","name":"pointsForTitanium","inputs":[],"outputs":[{"name":"","type":"uint256","internalType":"uint256"}],"stateMutability":"view"},{"type":"function","name":"proxiableUUID","inputs":[],"outputs":[{"name":"","type":"bytes32","internalType":"bytes32"}],"stateMutability":"view"},{"type":"function","name":"removePoints","inputs":[{"name":"clientId","type":"uint256","internalType":"uint256"},{"name":"points","type":"uint256","internalType":"uint256"}],"outputs":[],"stateMutability":"nonpayable"},{"type":"function","name":"renounceOwnership","inputs":[],"outputs":[],"stateMutability":"nonpayable"},{"type":"function","name":"safeBatchTransferFrom","inputs":[{"name":"from","type":"address","internalType":"address"},{"name":"to","type":"address","internalType":"address"},{"name":"ids","type":"uint256[]","internalType":"uint256[]"},{"name":"values","type":"uint256[]","internalType":"uint256[]"},{"name":"data","type":"bytes","internalType":"bytes"}],"outputs":[],"stateMutability":"nonpayable"},{"type":"function","name":"safeTransferFrom","inputs":[{"name":"from","type":"address","internalType":"address"},{"name":"to","type":"address","internalType":"address"},{"name":"id","type":"uint256","internalType":"uint256"},{"name":"value","type":"uint256","internalType":"uint256"},{"name":"data","type":"bytes","internalType":"bytes"}],"outputs":[],"stateMutability":"nonpayable"},{"type":"function","name":"setApprovalForAll","inputs":[{"name":"operator","type":"address","internalType":"address"},{"name":"approved","type":"bool","internalType":"bool"}],"outputs":[],"stateMutability":"nonpayable"},{"type":"function","name":"setMultiplerPointsThreshold","inputs":[{"name":"newValue","type":"uint256","internalType":"uint256"}],"outputs":[],"stateMutability":"nonpayable"},{"type":"function","name":"setPointThresholds","inputs":[{"name":"premium","type":"uint256","internalType":"uint256"},{"name":"gold","type":"uint256","internalType":"uint256"},{"name":"titanium","type":"uint256","internalType":"uint256"}],"outputs":[],"stateMutability":"nonpayable"},{"type":"function","name":"setPointsTokenAddress","inputs":[{"name":"tokenAddress","type":"address","internalType":"address"}],"outputs":[],"stateMutability":"nonpayable"},{"type":"function","name":"setTokensPerPointsMultiplerThreshold","inputs":[{"name":"newValue","type":"uint256","internalType":"uint256"}],"outputs":[],"stateMutability":"nonpayable"},{"type":"function","name":"supportsInterface","inputs":[{"name":"interfaceId","type":"bytes4","internalType":"bytes4"}],"outputs":[{"name":"","type":"bool","internalType":"bool"}],"stateMutability":"view"},{"type":"function","name":"tokenURI","inputs":[{"name":"tokenId","type":"uint256","internalType":"uint256"}],"outputs":[{"name":"","type":"string","internalType":"string"}],"stateMutability":"view"},{"type":"function","name":"tokensPerPointsMultiplerThreshold","inputs":[],"outputs":[{"name":"","type":"uint256","internalType":"uint256"}],"stateMutability":"view"},{"type":"function","name":"transferOwnership","inputs":[{"name":"newOwner","type":"address","internalType":"address"}],"outputs":[],"stateMutability":"nonpayable"},{"type":"function","name":"upgradeToAndCall","inputs":[{"name":"newImplementation","type":"address","internalType":"address"},{"name":"data","type":"bytes","internalType":"bytes"}],"outputs":[],"stateMutability":"payable"},{"type":"function","name":"uri","inputs":[{"name":"","type":"uint256","internalType":"uint256"}],"outputs":[{"name":"","type":"string","internalType":"string"}],"stateMutability":"view"},{"type":"event","name":"ApprovalForAll","inputs":[{"name":"account","type":"address","indexed":true,"internalType":"address"},{"name":"operator","type":"address","indexed":true,"internalType":"address"},{"name":"approved","type":"bool","indexed":false,"internalType":"bool"}],"anonymous":false},{"type":"event","name":"ClientPointsChanged","inputs":[{"name":"clientId","type":"uint256","indexed":true,"internalType":"uint256"},{"name":"newPoints","type":"uint256","indexed":false,"internalType":"uint256"}],"anonymous":false},{"type":"event","name":"ClientPointsReset","inputs":[{"name":"clientId","type":"uint256","indexed":true,"internalType":"uint256"}],"anonymous":false},{"type":"event","name":"CustomerGoldBurned","inputs":[{"name":"clientId","type":"uint256","indexed":true,"internalType":"uint256"},{"name":"clientAddress","type":"address","indexed":false,"internalType":"address"}],"anonymous":false},{"type":"event","name":"CustomerGoldMinted","inputs":[{"name":"clientId","type":"uint256","indexed":true,"internalType":"uint256"},{"name":"clientAddress","type":"address","indexed":false,"internalType":"address"}],"anonymous":false},{"type":"event","name":"CustomerPremiumBurned","inputs":[{"name":"clientId","type":"uint256","indexed":true,"internalType":"uint256"},{"name":"clientAddress","type":"address","indexed":false,"internalType":"address"}],"anonymous":false},{"type":"event","name":"CustomerPremiumMinted","inputs":[{"name":"clientId","type":"uint256","indexed":true,"internalType":"uint256"},{"name":"clientAddress","type":"address","indexed":false,"internalType":"address"}],"anonymous":false},{"type":"event","name":"CustomerTitaniumBurned","inputs":[{"name":"clientId","type":"uint256","indexed":true,"internalType":"uint256"},{"name":"clientAddress","type":"address","indexed":false,"internalType":"address"}],"anonymous":false},{"type":"event","name":"CustomerTitaniumMinted","inputs":[{"name":"clientId","type":"uint256","indexed":true,"internalType":"uint256"},{"name":"clientAddress","type":"address","indexed":false,"internalType":"address"}],"anonymous":false},{"type":"event","name":"Initialized","inputs":[{"name":"version","type":"uint64","indexed":false,"internalType":"uint64"}],"anonymous":false},{"type":"event","name":"OwnershipTransferred","inputs":[{"name":"previousOwner","type":"address","indexed":true,"internalType":"address"},{"name":"newOwner","type":"address","indexed":true,"internalType":"address"}],"anonymous":false},{"type":"event","name":"PointsAdded","inputs":[{"name":"clientId","type":"uint256","indexed":true,"internalType":"uint256"},{"name":"points","type":"uint256","indexed":false,"internalType":"uint256"}],"anonymous":false},{"type":"event","name":"PointsRemoved","inputs":[{"name":"clientId","type":"uint256","indexed":true,"internalType":"uint256"},{"name":"points","type":"uint256","indexed":false,"internalType":"uint256"}],"anonymous":false},{"type":"event","name":"PointsTokenAddressSet","inputs":[{"name":"tokenAddress","type":"address","indexed":true,"internalType":"address"}],"anonymous":false},{"type":"event","name":"TokensTransferred","inputs":[{"name":"clientId","type":"uint256","indexed":true,"internalType":"uint256"},{"name":"amount","type":"uint256","indexed":false,"internalType":"uint256"}],"anonymous":false},{"type":"event","name":"TransferBatch","inputs":[{"name":"operator","type":"address","indexed":true,"internalType":"address"},{"name":"from","type":"address","indexed":true,"internalType":"address"},{"name":"to","type":"address","indexed":true,"internalType":"address"},{"name":"ids","type":"uint256[]","indexed":false,"internalType":"uint256[]"},{"name":"values","type":"uint256[]","indexed":false,"internalType":"uint256[]"}],"anonymous":false},{"type":"event","name":"TransferSingle","inputs":[{"name":"operator","type":"address","indexed":true,"internalType":"address"},{"name":"from","type":"address","indexed":true,"internalType":"address"},{"name":"to","type":"address","indexed":true,"internalType":"address"},{"name":"id","type":"uint256","indexed":false,"internalType":"uint256"},{"name":"value","type":"uint256","indexed":false,"internalType":"uint256"}],"anonymous":false},{"type":"event","name":"URI","inputs":[{"name":"value","type":"string","indexed":false,"internalType":"string"},{"name":"id","type":"uint256","indexed":true,"internalType":"uint256"}],"anonymous":false},{"type":"event","name":"Upgraded","inputs":[{"name":"implementation","type":"address","indexed":true,"internalType":"address"}],"anonymous":false},{"type":"error","name":"AddressEmptyCode","inputs":[{"name":"target","type":"address","internalType":"address"}]},{"type":"error","name":"ERC1155InsufficientBalance","inputs":[{"name":"sender","type":"address","internalType":"address"},{"name":"balance","type":"uint256","internalType":"uint256"},{"name":"needed","type":"uint256","internalType":"uint256"},{"name":"tokenId","type":"uint256","internalType":"uint256"}]},{"type":"error","name":"ERC1155InvalidApprover","inputs":[{"name":"approver","type":"address","internalType":"address"}]},{"type":"error","name":"ERC1155InvalidArrayLength","inputs":[{"name":"idsLength","type":"uint256","internalType":"uint256"},{"name":"valuesLength","type":"uint256","internalType":"uint256"}]},{"type":"error","name":"ERC1155InvalidOperator","inputs":[{"name":"operator","type":"address","internalType":"address"}]},{"type":"error","name":"ERC1155InvalidReceiver","inputs":[{"name":"receiver","type":"address","internalType":"address"}]},{"type":"error","name":"ERC1155InvalidSender","inputs":[{"name":"sender","type":"address","internalType":"address"}]},{"type":"error","name":"ERC1155MissingApprovalForAll","inputs":[{"name":"operator","type":"address","internalType":"address"},{"name":"owner","type":"address","internalType":"address"}]},{"type":"error","name":"ERC1967InvalidImplementation","inputs":[{"name":"implementation","type":"address","internalType":"address"}]},{"type":"error","name":"ERC1967NonPayable","inputs":[]},{"type":"error","name":"FailedInnerCall","inputs":[]},{"type":"error","name":"InsufficientPoints","inputs":[{"name":"available","type":"uint256","internalType":"uint256"},{"name":"required","type":"uint256","internalType":"uint256"}]},{"type":"error","name":"InvalidClientID","inputs":[{"name":"clientId","type":"uint256","internalType":"uint256"}]},{"type":"error","name":"InvalidInitialization","inputs":[]},{"type":"error","name":"NotInitializing","inputs":[]},{"type":"error","name":"OwnableInvalidOwner","inputs":[{"name":"owner","type":"address","internalType":"address"}]},{"type":"error","name":"OwnableUnauthorizedAccount","inputs":[{"name":"account","type":"address","internalType":"address"}]},{"type":"error","name":"UUPSUnauthorizedCallContext","inputs":[]},{"type":"error","name":"UUPSUnsupportedProxiableUUID","inputs":[{"name":"slot","type":"bytes32","internalType":"bytes32"}]}],"bytecode":{"object":"0x60a06040523060805234801561001457600080fd5b5060805161300a61003e600039600081816115320152818161155b015261169c015261300a6000f3fe60806040526004361061022f5760003560e01c8063a22cb4651161012e578063e0794800116100ab578063ef04cba51161006f578063ef04cba51461066b578063f242432a1461068b578063f2fde38b146106ab578063f399e22e146106cb578063fe4651a0146106eb57600080fd5b8063e0794800146105d5578063e921378d146105f5578063e985e9c514610615578063ea69e31e14610635578063ed8c59381461064b57600080fd5b8063c87b56dd116100f2578063c87b56dd1461054a578063c88a62bb1461056a578063d6d95a8d1461058a578063d7548786146105a0578063de29d16b146105c057600080fd5b8063a22cb465146104af578063a49fa23c146104cf578063ad3cb1cc146104e4578063b756e07b14610515578063bb7b1d8f1461053557600080fd5b8063410334a6116101bc578063686157ba11610180578063686157ba1461040a578063715018a6146104205780638da5cb5b1461043557806394d8b2ca146104625780639a77667d1461048f57600080fd5b8063410334a61461037f5780634e1273f41461039f5780634f1ef286146103cc57806352d1902d146103df5780635668f3f0146103f457600080fd5b80630e89341c116102035780630e89341c146102e75780631358168814610307578063156e29f61461031d5780632eb2c2d61461033f5780632fdd863a1461035f57600080fd5b8062fdd58e1461023457806301ffc9a71461026757806303ee438c146102975780630d8e6e2c146102b9575b600080fd5b34801561024057600080fd5b5061025461024f36600461259b565b61070b565b6040519081526020015b60405180910390f35b34801561027357600080fd5b506102876102823660046125dd565b610742565b604051901515815260200161025e565b3480156102a357600080fd5b506102ac610792565b60405161025e919061264a565b3480156102c557600080fd5b506040805180820190915260058152640312e312e360dc1b60208201526102ac565b3480156102f357600080fd5b506102ac61030236600461265d565b610820565b34801561031357600080fd5b5061025460065481565b34801561032957600080fd5b5061033d610338366004612676565b6108e5565b005b34801561034b57600080fd5b5061033d61035a3660046127f6565b610971565b34801561036b57600080fd5b5061033d61037a3660046128a3565b6109d8565b34801561038b57600080fd5b5061033d61039a36600461265d565b6109ee565b3480156103ab57600080fd5b506103bf6103ba3660046128cf565b6109fb565b60405161025e91906129cb565b61033d6103da3660046129de565b610acf565b3480156103eb57600080fd5b50610254610aee565b34801561040057600080fd5b5061025460055481565b34801561041657600080fd5b5061025460085481565b34801561042c57600080fd5b5061033d610b0b565b34801561044157600080fd5b5061044a610b1f565b6040516001600160a01b03909116815260200161025e565b34801561046e57600080fd5b5061025461047d36600461265d565b60006020819052908152604090205481565b34801561049b57600080fd5b506102546104aa36600461265d565b610b4d565b3480156104bb57600080fd5b5061033d6104ca366004612a31565b610bf3565b3480156104db57600080fd5b50610254600281565b3480156104f057600080fd5b506102ac604051806040016040528060058152602001640352e302e360dc1b81525081565b34801561052157600080fd5b5060035461044a906001600160a01b031681565b34801561054157600080fd5b50610254600181565b34801561055657600080fd5b506102ac61056536600461265d565b610bfe565b34801561057657600080fd5b5061033d61058536600461265d565b610c88565b34801561059657600080fd5b5061025460045481565b3480156105ac57600080fd5b5060025461044a906001600160a01b031681565b3480156105cc57600080fd5b50610254600381565b3480156105e157600080fd5b5061033d6105f0366004612a6a565b610c95565b34801561060157600080fd5b5061025461061036600461265d565b610dce565b34801561062157600080fd5b50610287610630366004612a8c565b610e70565b34801561064157600080fd5b5061025460075481565b34801561065757600080fd5b5061033d610666366004612676565b610ebd565b34801561067757600080fd5b5061033d610686366004612aba565b610f34565b34801561069757600080fd5b5061033d6106a6366004612ad7565b610f86565b3480156106b757600080fd5b5061033d6106c6366004612aba565b610fe5565b3480156106d757600080fd5b5061033d6106e6366004612b3f565b611023565b3480156106f757600080fd5b5061033d610706366004612a6a565b61117d565b6000818152600080516020612fb5833981519152602090815260408083206001600160a01b03861684529091529020545b92915050565b60006001600160e01b03198216636cdb3d1360e11b148061077357506001600160e01b031982166303a24d0760e21b145b8061073c57506301ffc9a760e01b6001600160e01b031983161461073c565b6009805461079f90612b98565b80601f01602080910402602001604051908101604052809291908181526020018280546107cb90612b98565b80156108185780601f106107ed57610100808354040283529160200191610818565b820191906000526020600020905b8154815290600101906020018083116107fb57829003601f168201915b505050505081565b7f88be536d5240c274a3b1d3a1be54482fd9caa294f08c62a7cde569f49a3c45028054606091600080516020612fb58339815191529161085f90612b98565b80601f016020809104026020016040519081016040528092919081815260200182805461088b90612b98565b80156108d85780601f106108ad576101008083540402835291602001916108d8565b820191906000526020600020905b8154815290600101906020018083116108bb57829003601f168201915b5050505050915050919050565b6108ed611431565b60018214806108fc5750600282145b806109075750600382145b6109515760405162461bcd60e51b8152602060048201526016602482015275125b9d985b1a590818985919d9481b999d1259081a5960521b60448201526064015b60405180910390fd5b61096c83838360405180602001604052806000815250611463565b505050565b336001600160a01b038616811480159061099257506109908682610e70565b155b156109c35760405163711bec9160e11b81526001600160a01b03808316600483015287166024820152604401610948565b6109d086868686866114c0565b505050505050565b6109e0611431565b600492909255600555600655565b6109f6611431565b600755565b60608151835114610a2c5781518351604051635b05999160e01b815260048101929092526024820152604401610948565b600083516001600160401b03811115610a4757610a476126ab565b604051908082528060200260200182016040528015610a70578160200160208202803683370190505b50905060005b8451811015610ac757602080820286010151610a9a9060208084028701015161070b565b828281518110610aac57610aac612bcc565b6020908102919091010152610ac081612bf8565b9050610a76565b509392505050565b610ad7611527565b610ae0826115cc565b610aea82826115d4565b5050565b6000610af8611691565b50600080516020612f9583398151915290565b610b13611431565b610b1d60006116da565b565b7f9016d09d72d40fdae2fd8ceac6b6234c7706214fd39c1cd1e609a0528c199300546001600160a01b031690565b600254604051630c6123bd60e41b81526004810183905260009183916001600160a01b039091169063c6123bd090602401602060405180830381865afa158015610b9b573d6000803e3d6000fd5b505050506040513d601f19601f82011682018060405250810190610bbf9190612c11565b610bdb5760405162461bcd60e51b815260040161094890612c2e565b60008381526001602052604090205491505b50919050565b610aea33838361174b565b6060610c09826117f3565b15610c565760405162461bcd60e51b815260206004820152601760248201527f546f6b656e20494420646f6573206e6f742065786973740000000000000000006044820152606401610948565b6009610c618361186b565b604051602001610c72929190612c65565b6040516020818303038152906040529050919050565b610c90611431565b600855565b610c9d611431565b600254604051630c6123bd60e41b81526004810184905283916001600160a01b03169063c6123bd090602401602060405180830381865afa158015610ce6573d6000803e3d6000fd5b505050506040513d601f19601f82011682018060405250810190610d0a9190612c11565b610d265760405162461bcd60e51b815260040161094890612c2e565b600083815260016020526040902054821115610d705760008381526001602052604090819020549051638059c74760e01b8152600481019190915260248101839052604401610948565b60008381526001602052604081208054849290610d8e908490612cf9565b909155505060405182815283907f3acfc90bc712f850a17e0c2eba0dfc3884c55e7f88d2cc44c097cbd3b1de778f906020015b60405180910390a2505050565b600254604051630c6123bd60e41b81526004810183905260009183916001600160a01b039091169063c6123bd090602401602060405180830381865afa158015610e1c573d6000803e3d6000fd5b505050506040513d601f19601f82011682018060405250810190610e409190612c11565b610e5c5760405162461bcd60e51b815260040161094890612c2e565b505060009081526020819052604090205490565b6001600160a01b0391821660009081527f88be536d5240c274a3b1d3a1be54482fd9caa294f08c62a7cde569f49a3c45016020908152604080832093909416825291909152205460ff1690565b610ec5611431565b6000610ed1848461070b565b905081811015610f235760405162461bcd60e51b815260206004820152601c60248201527f496e73756666696369656e742062616c616e636520746f206275726e000000006044820152606401610948565b610f2e8484846118fd565b50505050565b610f3c611431565b600380546001600160a01b0319166001600160a01b0383169081179091556040517f58adbfbb983e2fe8d75175ed2f667dbbe96d8f848c48dcb8db66627683f9d05590600090a250565b336001600160a01b0386168114801590610fa75750610fa58682610e70565b155b15610fd85760405163711bec9160e11b81526001600160a01b03808316600483015287166024820152604401610948565b6109d08686868686611965565b610fed611431565b6001600160a01b03811661101757604051631e4fbdf760e01b815260006004820152602401610948565b611020816116da565b50565b7ff0c57e16840df040f15088dc2f81fe391c3923bec73e23a9662efc9c229c6a008054600160401b810460ff1615906001600160401b03166000811580156110685750825b90506000826001600160401b031660011480156110845750303b155b905081158015611092575080155b156110b05760405163f92ee8a960e01b815260040160405180910390fd5b845467ffffffffffffffff1916600117855583156110da57845460ff60401b1916600160401b1785555b6110e3336119ea565b600280546001600160a01b0319166001600160a01b038916179055611107866119fb565b61111760c86101f46103e86109d8565b60096111238782612d52565b506005600755600a600855831561117457845460ff60401b19168555604051600181527fc7f505b2f371ae2175ee4913f4499e1f2633a7b5936321eed1cdaeb6115181d29060200160405180910390a15b50505050505050565b611185611431565b600254604051630c6123bd60e41b81526004810184905283916001600160a01b03169063c6123bd090602401602060405180830381865afa1580156111ce573d6000803e3d6000fd5b505050506040513d601f19601f820116820180604052508101906111f29190612c11565b61120e5760405162461bcd60e51b815260040161094890612c2e565b6000838152600160205260408120805484929061122c908490612e11565b9091555061123b905083611a0c565b60006007546008548461124e9190612e24565b6112589190612e46565b60025460405163130da8a560e11b8152600481018790529192506000916001600160a01b039091169063261b514a90602401602060405180830381865afa1580156112a7573d6000803e3d6000fd5b505050506040513d601f19601f820116820180604052508101906112cb9190612e5d565b6003549091506001600160a01b03166323b872dd6112e7610b1f565b836112fa86670de0b6b3a7640000612e46565b6040516001600160e01b031960e086901b1681526001600160a01b03938416600482015292909116602483015260448201526064016020604051808303816000875af115801561134e573d6000803e3d6000fd5b505050506040513d601f19601f820116820180604052508101906113729190612c11565b6113b65760405162461bcd60e51b8152602060048201526015602482015274151bdad95b881d1c985b9cd9995c8819985a5b1959605a1b6044820152606401610948565b847f3ecf3fd11fc7c78dab980e73d7952ad9c2fd79461f9cf298f456274ea1729173836040516113e891815260200190565b60405180910390a2847ff54b9ab9e866899cf7486a617bf4f1e402300b8c2b16214e8f20f0d8ba03ca118560405161142291815260200190565b60405180910390a25050505050565b3361143a610b1f565b6001600160a01b031614610b1d5760405163118cdaa760e01b8152336004820152602401610948565b6001600160a01b03841661148d57604051632bfa23e760e11b815260006004820152602401610948565b604080516001808252602082018690528183019081526060820185905260808201909252906109d0600087848487611b4a565b6001600160a01b0384166114ea57604051632bfa23e760e11b815260006004820152602401610948565b6001600160a01b03851661151357604051626a0d4560e21b815260006004820152602401610948565b6115208585858585611b4a565b5050505050565b306001600160a01b037f00000000000000000000000000000000000000000000000000000000000000001614806115ae57507f00000000000000000000000000000000000000000000000000000000000000006001600160a01b03166115a2600080516020612f95833981519152546001600160a01b031690565b6001600160a01b031614155b15610b1d5760405163703e46dd60e11b815260040160405180910390fd5b611020611431565b816001600160a01b03166352d1902d6040518163ffffffff1660e01b8152600401602060405180830381865afa92505050801561162e575060408051601f3d908101601f1916820190925261162b91810190612e7a565b60015b61165657604051634c9c8ce360e01b81526001600160a01b0383166004820152602401610948565b600080516020612f95833981519152811461168757604051632a87526960e21b815260048101829052602401610948565b61096c8383611b9d565b306001600160a01b037f00000000000000000000000000000000000000000000000000000000000000001614610b1d5760405163703e46dd60e11b815260040160405180910390fd5b7f9016d09d72d40fdae2fd8ceac6b6234c7706214fd39c1cd1e609a0528c19930080546001600160a01b031981166001600160a01b03848116918217845560405192169182907f8be0079c531659141344cd1fd0a4f28419497f9722a3daafe3b4186f6b6457e090600090a3505050565b600080516020612fb58339815191526001600160a01b0383166117835760405162ced3e160e81b815260006004820152602401610948565b6001600160a01b038481166000818152600184016020908152604080832094881680845294825291829020805460ff191687151590811790915591519182527f17307eab39ab6107e8899845ad3d59bd9653f200f220920489ca2b5937696c31910160405180910390a350505050565b60025460405163423411b160e01b815233600482015260009183916001600160a01b039091169063423411b190602401602060405180830381865afa158015611840573d6000803e3d6000fd5b505050506040513d601f19601f820116820180604052508101906118649190612e7a565b1492915050565b6060600061187883611bf3565b60010190506000816001600160401b03811115611897576118976126ab565b6040519080825280601f01601f1916602001820160405280156118c1576020820181803683370190505b5090508181016020015b600019016f181899199a1a9b1b9c1cb0b131b232b360811b600a86061a8153600a85049450846118cb57509392505050565b6001600160a01b03831661192657604051626a0d4560e21b815260006004820152602401610948565b604080516001808252602082018590528183019081526060820184905260a0820190925260006080820181815291929161152091879185908590611b4a565b6001600160a01b03841661198f57604051632bfa23e760e11b815260006004820152602401610948565b6001600160a01b0385166119b857604051626a0d4560e21b815260006004820152602401610948565b604080516001808252602082018690528183019081526060820185905260808201909252906111748787848487611b4a565b6119f2611ccb565b61102081611d14565b611a03611ccb565b61102081611d1c565b600081815260016020908152604080832054918390528220805490839055600654919290918310611a3f57506003611a5d565b6005548310611a5057506002611a5d565b6004548310611a5d575060015b60025460405163130da8a560e11b8152600481018690526000916001600160a01b03169063261b514a90602401602060405180830381865afa158015611aa7573d6000803e3d6000fd5b505050506040513d601f19601f82011682018060405250810190611acb9190612e5d565b9050828214611b0557611adf858285611d2d565b611afb8183600160405180602001604052806000815250611463565b611b058583611d60565b847f0cf50bca40d79209e58ddde2b955769f5c16088c126332b9f9a9e0bc9bdea372600160008881526020019081526020016000205460405161142291815260200190565b611b5685858585611e99565b6001600160a01b038416156115205782513390600103611b8f5760208481015190840151611b888389898585896120c7565b50506109d0565b6109d08187878787876121eb565b611ba6826122d4565b6040516001600160a01b038316907fbc7cd75a20ee27fd9adebab32041f755214dbc6bffa90cc0225b39da2e5c2d3b90600090a2805115611beb5761096c8282612339565b610aea6123af565b60008072184f03e93ff9f4daa797ed6e38ed64bf6a1f0160401b8310611c325772184f03e93ff9f4daa797ed6e38ed64bf6a1f0160401b830492506040015b6d04ee2d6d415b85acef81000000008310611c5e576d04ee2d6d415b85acef8100000000830492506020015b662386f26fc100008310611c7c57662386f26fc10000830492506010015b6305f5e1008310611c94576305f5e100830492506008015b6127108310611ca857612710830492506004015b60648310611cba576064830492506002015b600a831061073c5760010192915050565b7ff0c57e16840df040f15088dc2f81fe391c3923bec73e23a9662efc9c229c6a0054600160401b900460ff16610b1d57604051631afcd79f60e31b815260040160405180910390fd5b610fed611ccb565b611d24611ccb565b611020816123ce565b8015801590611d4557506000611d43838361070b565b115b1561096c57611d56828260016118fd565b61096c8382612408565b60025460405163130da8a560e11b8152600481018490526000916001600160a01b03169063261b514a90602401602060405180830381865afa158015611daa573d6000803e3d6000fd5b505050506040513d601f19601f82011682018060405250810190611dce9190612e5d565b905060038203611e13576040516001600160a01b038216815283907f86fd7d1f5d70bd0ede2920e14777133ae135b452371f1b397eece7b74efb4d5190602001610dc1565b60028203611e56576040516001600160a01b038216815283907f43fc4850ce1c63dc0d1cce5b24f257f4902f7db319518a4a65eeff179e6e778a90602001610dc1565b6001820361096c576040516001600160a01b038216815283907fd033dc0fc57b48ca3fa12d5d7abd5f9cdd9c2771503743f05c58af7fb573029090602001610dc1565b80518251600080516020612fb58339815191529114611ed85782518251604051635b05999160e01b815260048101929092526024820152604401610948565b3360005b8451811015611fe7576020818102868101820151908601909101516001600160a01b03891615611f8f576000828152602086815260408083206001600160a01b038d16845290915290205481811015611f68576040516303dee4c560e01b81526001600160a01b038b166004820152602481018290526044810183905260648101849052608401610948565b6000838152602087815260408083206001600160a01b038e16845290915290209082900390555b6001600160a01b03881615611fd4576000828152602086815260408083206001600160a01b038c16845290915281208054839290611fce908490612e11565b90915550505b505080611fe090612bf8565b9050611edc565b5083516001036120685760208401516000906020850151909150866001600160a01b0316886001600160a01b0316846001600160a01b03167fc3d58168c5ae7397731d063d5bbf3d657854427343f4c083240f7aacaa2d0f628585604051612059929190918252602082015260400190565b60405180910390a450506109d0565b846001600160a01b0316866001600160a01b0316826001600160a01b03167f4a39dc06d4c0dbc64b70af90fd698a233a518aa5d07e595d983b8c0526c8f7fb87876040516120b7929190612e93565b60405180910390a4505050505050565b6001600160a01b0384163b156109d05760405163f23a6e6160e01b81526001600160a01b0385169063f23a6e619061210b9089908990889088908890600401612eb8565b6020604051808303816000875af1925050508015612146575060408051601f3d908101601f1916820190925261214391810190612efd565b60015b6121af573d808015612174576040519150601f19603f3d011682016040523d82523d6000602084013e612179565b606091505b5080516000036121a757604051632bfa23e760e11b81526001600160a01b0386166004820152602401610948565b805181602001fd5b6001600160e01b0319811663f23a6e6160e01b1461117457604051632bfa23e760e11b81526001600160a01b0386166004820152602401610948565b6001600160a01b0384163b156109d05760405163bc197c8160e01b81526001600160a01b0385169063bc197c819061222f9089908990889088908890600401612f1a565b6020604051808303816000875af192505050801561226a575060408051601f3d908101601f1916820190925261226791810190612efd565b60015b612298573d808015612174576040519150601f19603f3d011682016040523d82523d6000602084013e612179565b6001600160e01b0319811663bc197c8160e01b1461117457604051632bfa23e760e11b81526001600160a01b0386166004820152602401610948565b806001600160a01b03163b60000361230a57604051634c9c8ce360e01b81526001600160a01b0382166004820152602401610948565b600080516020612f9583398151915280546001600160a01b0319166001600160a01b0392909216919091179055565b6060600080846001600160a01b0316846040516123569190612f78565b600060405180830381855af49150503d8060008114612391576040519150601f19603f3d011682016040523d82523d6000602084013e612396565b606091505b50915091506123a68583836124fe565b95945050505050565b3415610b1d5760405163b398979f60e01b815260040160405180910390fd5b600080516020612fb58339815191527f88be536d5240c274a3b1d3a1be54482fd9caa294f08c62a7cde569f49a3c450261096c8382612d52565b60025460405163130da8a560e11b8152600481018490526000916001600160a01b03169063261b514a90602401602060405180830381865afa158015612452573d6000803e3d6000fd5b505050506040513d601f19601f820116820180604052508101906124769190612e5d565b9050600282036124bb576040516001600160a01b038216815283907fddce914db84a6bdbb58a5b60c983261219e5030e7998b25cd0b2330cc105b4c590602001610dc1565b6001820361096c576040516001600160a01b038216815283907fe5d0b65c1535a04adf3a83fd5a8fa8a36e3d022c2a1f6e845823910159439cbe90602001610dc1565b6060826125135761250e8261255d565b612556565b815115801561252a57506001600160a01b0384163b155b1561255357604051639996b31560e01b81526001600160a01b0385166004820152602401610948565b50805b9392505050565b80511561256d5780518082602001fd5b604051630a12f52160e11b815260040160405180910390fd5b6001600160a01b038116811461102057600080fd5b600080604083850312156125ae57600080fd5b82356125b981612586565b946020939093013593505050565b6001600160e01b03198116811461102057600080fd5b6000602082840312156125ef57600080fd5b8135612556816125c7565b60005b838110156126155781810151838201526020016125fd565b50506000910152565b600081518084526126368160208601602086016125fa565b601f01601f19169290920160200192915050565b602081526000612556602083018461261e565b60006020828403121561266f57600080fd5b5035919050565b60008060006060848603121561268b57600080fd5b833561269681612586565b95602085013595506040909401359392505050565b634e487b7160e01b600052604160045260246000fd5b604051601f8201601f191681016001600160401b03811182821017156126e9576126e96126ab565b604052919050565b60006001600160401b0382111561270a5761270a6126ab565b5060051b60200190565b600082601f83011261272557600080fd5b8135602061273a612735836126f1565b6126c1565b82815260059290921b8401810191818101908684111561275957600080fd5b8286015b84811015612774578035835291830191830161275d565b509695505050505050565b60006001600160401b03831115612798576127986126ab565b6127ab601f8401601f19166020016126c1565b90508281528383830111156127bf57600080fd5b828260208301376000602084830101529392505050565b600082601f8301126127e757600080fd5b6125568383356020850161277f565b600080600080600060a0868803121561280e57600080fd5b853561281981612586565b9450602086013561282981612586565b935060408601356001600160401b038082111561284557600080fd5b61285189838a01612714565b9450606088013591508082111561286757600080fd5b61287389838a01612714565b9350608088013591508082111561288957600080fd5b50612896888289016127d6565b9150509295509295909350565b6000806000606084860312156128b857600080fd5b505081359360208301359350604090920135919050565b600080604083850312156128e257600080fd5b82356001600160401b03808211156128f957600080fd5b818501915085601f83011261290d57600080fd5b8135602061291d612735836126f1565b82815260059290921b8401810191818101908984111561293c57600080fd5b948201945b8386101561296357853561295481612586565b82529482019490820190612941565b9650508601359250508082111561297957600080fd5b5061298685828601612714565b9150509250929050565b600081518084526020808501945080840160005b838110156129c0578151875295820195908201906001016129a4565b509495945050505050565b6020815260006125566020830184612990565b600080604083850312156129f157600080fd5b82356129fc81612586565b915060208301356001600160401b03811115612a1757600080fd5b612986858286016127d6565b801515811461102057600080fd5b60008060408385031215612a4457600080fd5b8235612a4f81612586565b91506020830135612a5f81612a23565b809150509250929050565b60008060408385031215612a7d57600080fd5b50508035926020909101359150565b60008060408385031215612a9f57600080fd5b8235612aaa81612586565b91506020830135612a5f81612586565b600060208284031215612acc57600080fd5b813561255681612586565b600080600080600060a08688031215612aef57600080fd5b8535612afa81612586565b94506020860135612b0a81612586565b9350604086013592506060860135915060808601356001600160401b03811115612b3357600080fd5b612896888289016127d6565b60008060408385031215612b5257600080fd5b8235612b5d81612586565b915060208301356001600160401b03811115612b7857600080fd5b8301601f81018513612b8957600080fd5b6129868582356020840161277f565b600181811c90821680612bac57607f821691505b602082108103610bed57634e487b7160e01b600052602260045260246000fd5b634e487b7160e01b600052603260045260246000fd5b634e487b7160e01b600052601160045260246000fd5b600060018201612c0a57612c0a612be2565b5060010190565b600060208284031215612c2357600080fd5b815161255681612a23565b6020808252601c908201527f496e76616c6964436c69656e744944206f6e20506f696e74436f726500000000604082015260600190565b6000808454612c7381612b98565b60018281168015612c8b5760018114612ca057612ccf565b60ff1984168752821515830287019450612ccf565b8860005260208060002060005b85811015612cc65781548a820152908401908201612cad565b50505082870194505b50602f60f81b845286519250612ceb8382860160208a016125fa565b919092010195945050505050565b8181038181111561073c5761073c612be2565b601f82111561096c57600081815260208120601f850160051c81016020861015612d335750805b601f850160051c820191505b818110156109d057828155600101612d3f565b81516001600160401b03811115612d6b57612d6b6126ab565b612d7f81612d798454612b98565b84612d0c565b602080601f831160018114612db45760008415612d9c5750858301515b600019600386901b1c1916600185901b1785556109d0565b600085815260208120601f198616915b82811015612de357888601518255948401946001909101908401612dc4565b5085821015612e015787850151600019600388901b60f8161c191681555b5050505050600190811b01905550565b8082018082111561073c5761073c612be2565b600082612e4157634e487b7160e01b600052601260045260246000fd5b500490565b808202811582820484141761073c5761073c612be2565b600060208284031215612e6f57600080fd5b815161255681612586565b600060208284031215612e8c57600080fd5b5051919050565b604081526000612ea66040830185612990565b82810360208401526123a68185612990565b6001600160a01b03868116825285166020820152604081018490526060810183905260a060808201819052600090612ef29083018461261e565b979650505050505050565b600060208284031215612f0f57600080fd5b8151612556816125c7565b6001600160a01b0386811682528516602082015260a060408201819052600090612f4690830186612990565b8281036060840152612f588186612990565b90508281036080840152612f6c818561261e565b98975050505050505050565b60008251612f8a8184602087016125fa565b919091019291505056fe360894a13ba1a3210667c828492db98dca3e2076cc3735a920a3ca505d382bbc88be536d5240c274a3b1d3a1be54482fd9caa294f08c62a7cde569f49a3c4500a26469706673582212204127fbb52a329f69d250ed19bec0603f12ad3e0ad2a5ee1ee4e2d4041164499664736f6c63430008150033","linkReferences":{}},"methodIdentifiers":{"CUSTOMER_GOLD()":"a49fa23c","CUSTOMER_PREMIUM()":"bb7b1d8f","CUSTOMER_TITANIUM()":"de29d16b","UPGRADE_INTERFACE_VERSION()":"ad3cb1cc","addPoints(uint256,uint256)":"fe4651a0","balanceOf(address,uint256)":"00fdd58e","balanceOfBatch(address[],uint256[])":"4e1273f4","burnToken(address,uint256,uint256)":"ed8c5938","clientLevel(uint256)":"94d8b2ca","customerManagerInstance()":"d7548786","drexToken()":"b756e07b","getClientLevel(uint256)":"e921378d","getClientPoints(uint256)":"9a77667d","getVersion()":"0d8e6e2c","initialize(address,string)":"f399e22e","isApprovedForAll(address,address)":"e985e9c5","metadataURI()":"03ee438c","mint(address,uint256,uint256)":"156e29f6","multiplerPointsThreshold()":"686157ba","owner()":"8da5cb5b","pointsForGold()":"5668f3f0","pointsForPremium()":"d6d95a8d","pointsForTitanium()":"13581688","proxiableUUID()":"52d1902d","removePoints(uint256,uint256)":"e0794800","renounceOwnership()":"715018a6","safeBatchTransferFrom(address,address,uint256[],uint256[],bytes)":"2eb2c2d6","safeTransferFrom(address,address,uint256,uint256,bytes)":"f242432a","setApprovalForAll(address,bool)":"a22cb465","setMultiplerPointsThreshold(uint256)":"c88a62bb","setPointThresholds(uint256,uint256,uint256)":"2fdd863a","setPointsTokenAddress(address)":"ef04cba5","setTokensPerPointsMultiplerThreshold(uint256)":"410334a6","supportsInterface(bytes4)":"01ffc9a7","tokenURI(uint256)":"c87b56dd","tokensPerPointsMultiplerThreshold()":"ea69e31e","transferOwnership(address)":"f2fde38b","upgradeToAndCall(address,bytes)":"4f1ef286","uri(uint256)":"0e89341c"},"id":1}